{
  "contractName": "Ethash",
  "abi": [
    {
      "constant": true,
      "inputs": [
        {
          "name": "",
          "type": "address"
        }
      ],
      "name": "owners",
      "outputs": [
        {
          "name": "",
          "type": "bool"
        }
      ],
      "payable": false,
      "stateMutability": "view",
      "type": "function"
    },
    {
      "constant": true,
      "inputs": [
        {
          "name": "header",
          "type": "bytes32"
        },
        {
          "name": "nonceLe",
          "type": "bytes8"
        },
        {
          "name": "dataSetLookup",
          "type": "uint256[]"
        },
        {
          "name": "witnessForLookup",
          "type": "uint256[]"
        },
        {
          "name": "epochIndex",
          "type": "uint256"
        }
      ],
      "name": "hashimoto",
      "outputs": [
        {
          "name": "",
          "type": "uint256"
        }
      ],
      "payable": false,
      "stateMutability": "view",
      "type": "function"
    },
    {
      "constant": true,
      "inputs": [
        {
          "name": "epochIndex",
          "type": "uint256"
        },
        {
          "name": "nodeIndex",
          "type": "uint256"
        }
      ],
      "name": "getEpochData",
      "outputs": [
        {
          "name": "",
          "type": "uint256[3]"
        }
      ],
      "payable": false,
      "stateMutability": "view",
      "type": "function"
    },
    {
      "constant": true,
      "inputs": [
        {
          "name": "epochIndex",
          "type": "uint256"
        }
      ],
      "name": "isEpochDataSet",
      "outputs": [
        {
          "name": "",
          "type": "bool"
        }
      ],
      "payable": false,
      "stateMutability": "view",
      "type": "function"
    },
    {
      "constant": false,
      "inputs": [
        {
          "name": "epoch",
          "type": "uint256"
        },
        {
          "name": "fullSizeIn128Resultion",
          "type": "uint256"
        },
        {
          "name": "branchDepth",
          "type": "uint256"
        },
        {
          "name": "merkleNodes",
          "type": "uint256[]"
        },
        {
          "name": "start",
          "type": "uint256"
        },
        {
          "name": "numElems",
          "type": "uint256"
        }
      ],
      "name": "setEpochData",
      "outputs": [],
      "payable": false,
      "stateMutability": "nonpayable",
      "type": "function"
    },
    {
      "inputs": [
        {
          "name": "_owners",
          "type": "address[3]"
        }
      ],
      "payable": false,
      "stateMutability": "nonpayable",
      "type": "constructor"
    },
    {
      "anonymous": false,
      "inputs": [
        {
          "indexed": true,
          "name": "sender",
          "type": "address"
        },
        {
          "indexed": false,
          "name": "error",
          "type": "uint256"
        },
        {
          "indexed": false,
          "name": "errorInfo",
          "type": "uint256"
        }
      ],
      "name": "SetEpochData",
      "type": "event"
    }
  ],
  "bytecode": "0x606060405234156200001057600080fd5b604051606080620036978339810160405280905060016000808360006003811015156200003957fe5b602002015173ffffffffffffffffffffffffffffffffffffffff1673ffffffffffffffffffffffffffffffffffffffff16815260200190815260200160002060006101000a81548160ff0219169083151502179055506001600080836001600381101515620000a457fe5b602002015173ffffffffffffffffffffffffffffffffffffffff1673ffffffffffffffffffffffffffffffffffffffff16815260200190815260200160002060006101000a81548160ff02191690831515021790555060016000808360026003811015156200010f57fe5b602002015173ffffffffffffffffffffffffffffffffffffffff1673ffffffffffffffffffffffffffffffffffffffff16815260200190815260200160002060006101000a81548160ff0219169083151502179055505061352180620001766000396000f30060606040526004361061006d576000357c0100000000000000000000000000000000000000000000000000000000900463ffffffff168063022914a71461007257806340ed79f4146100c35780634c80c937146101ab578063c7b81f4f14610213578063c891a29d1461024e575b600080fd5b341561007d57600080fd5b6100a9600480803573ffffffffffffffffffffffffffffffffffffffff169060200190919050506102d5565b604051808215151515815260200191505060405180910390f35b34156100ce57600080fd5b61019560048080356000191690602001909190803577ffffffffffffffffffffffffffffffffffffffffffffffff191690602001909190803590602001908201803590602001908080602002602001604051908101604052809392919081815260200183836020028082843782019150505050505091908035906020019082018035906020019080806020026020016040519081016040528093929190818152602001838360200280828437820191505050505050919080359060200190919050506102f5565b6040518082815260200191505060405180910390f35b34156101b657600080fd5b6101d56004808035906020019091908035906020019091905050610703565b6040518082600360200280838360005b838110156102005780820151818401526020810190506101e5565b5050505090500191505060405180910390f35b341561021e57600080fd5b6102346004808035906020019091905050610782565b604051808215151515815260200191505060405180910390f35b341561025957600080fd5b6102d36004808035906020019091908035906020019091908035906020019091908035906020019082018035906020019080806020026020016040519081016040528093929190818152602001838360200280828437820191505050505050919080359060200190919080359060200190919050506107a6565b005b60006020528060005260406000206000915054906101000a900460ff1681565b60006102ff613388565b6103076133b1565b61030f6133da565b610317613403565b6000806000806040805190810160405280600160008d815260200190815260200160002061020101548152602001600160008d81526020019081526020016000206102000154815250945061036b8a610782565b1515610399577ffffffffffffffffffffffffffffffffffffffffffffffffffffffffffffffffe98506106f2565b60008560016002811015156103aa57fe5b602002015114156103dd577fffffffffffffffffffffffffffffffffffffffffffffffffffffffffffffffff98506106f2565b6104078e600190048e78010000000000000000000000000000000000000000000000009004610a0b565b9750600093505b601084101561043d5760208402808901518189015280890151816102000189015250838060010194505061040e565b600093505b60408410156106395784600160028110151561045a57fe5b602002015161049c89600060108110151561047157fe5b602002015186188960208881151561048557fe5b0660208110151561049257fe5b6020020151610b22565b8115156104a557fe5b0691506104b28a83610b3b565b6104d283868f8f8a60006002811015156104c857fe5b6020020151610bef565b141515610501577fffffffffffffffffffffffffffffffffffffffffffffffffffffffffffffffff98506106f2565b600092505b600883101561062c5760208c01846080020163ffffffff815116846020028901805163ffffffff8363010001938302181680835260208501945063ffffffff8551169350610100830192508251915063ffffffff84630100019384021816905080835260208501945063ffffffff8551169350610100830192508251915063ffffffff84630100019384021816905080835260208501945063ffffffff8551169350610100830192508251915063ffffffff84630100019384021816905080835250505050506080840260208d010164010000000081510480825260208201915064010000000082510490508082526020820191506401000000008251049050808252602082019150640100000000825104905080825250508280600101935050610506565b8380600101945050610442565b600093505b60208410156106e2576106b461069961067e898760208110151561065e57fe5b60200201518a6001890160208110151561067457fe5b6020020151610b22565b896002880160208110151561068f57fe5b6020020151610b22565b88600387016020811015156106aa57fe5b6020020151610b22565b866004868115156106c157fe5b046008811015156106ce57fe5b60200201818152505060048401935061063e565b6106ec8887610e08565b90508098505b505050505050505095945050505050565b61070b61342a565b60606040519081016040528060016000868152602001908152602001600020600001846102008110151561073b57fe5b015481526020016001600086815260200190815260200160002061020001548152602001600160008681526020019081526020016000206102010154815250905092915050565b60008060016000848152602001908152602001600020610200015414159050919050565b60008060003373ffffffffffffffffffffffffffffffffffffffff1673ffffffffffffffffffffffffffffffffffffffff16815260200190815260200160002060009054906101000a900460ff16151561086f573373ffffffffffffffffffffffffffffffffffffffff167f5cd723400be8430351b9cbaa5ea421b3fb2528c6a7650c493f895e7d97750da163820000003373ffffffffffffffffffffffffffffffffffffffff16604051808381526020018281526020019250505060405180910390a2610a02565b600090505b8181101561097257600060016000898152602001908152602001600020600001828501610200811015156108a457fe5b01541115610922573373ffffffffffffffffffffffffffffffffffffffff167f5cd723400be8430351b9cbaa5ea421b3fb2528c6a7650c493f895e7d97750da1638200000183867001000000000000000000000000000000008c020101604051808381526020018281526020019250505060405180910390a2610a02565b838181518110151561093057fe5b90602001906020020151600160008981526020019081526020016000206000018285016102008110151561096057fe5b01819055508080600101915050610874565b85600160008981526020019081526020016000206102000181905550846001600089815260200190815260200160002061020101819055503373ffffffffffffffffffffffffffffffffffffffff167f5cd723400be8430351b9cbaa5ea421b3fb2528c6a7650c493f895e7d97750da1600080604051808381526020018281526020019250505060405180910390a25b50505050505050565b610a13613388565b610a1b613452565b610a2484611155565b935067ffffffffffffffff8416816000600981101515610a4057fe5b6020020181815250506801000000000000000084811515610a5d57fe5b04935067ffffffffffffffff8416816001600981101515610a7a57fe5b6020020181815250506801000000000000000084811515610a9757fe5b04935067ffffffffffffffff8416816002600981101515610ab457fe5b6020020181815250506801000000000000000084811515610ad157fe5b04935067ffffffffffffffff8416816003600981101515610aee57fe5b60200201818152505082816004600981101515610b0757fe5b602002018181525050610b19816111a1565b91505092915050565b600063ffffffff82630100019385021816905092915050565b6000806000600160008681526020019081526020016000206102010154849060020a9004915060016000868152602001908152602001600020600001600283811515610b8357fe5b0461020081101515610b9157fe5b015490506000600283811515610ba357fe5b061415610bc4576fffffffffffffffffffffffffffffffff81169050610be4565b70010000000000000000000000000000000081811515610be057fe5b0490505b809250505092915050565b6000806000806000806000806fffffffffffffffffffffffffffffffff610c168c8e6113ef565b169650600060028a811515610c2757fe5b06119250600289049850888c0291508215610c42578b820191505b600090505b88811015610d685760208282010260208b0101519350600060018e161415610c86578695506fffffffffffffffffffffffffffffffff84169450610c9f565b6fffffffffffffffffffffffffffffffff841695508694505b6fffffffffffffffffffffffffffffffff8686604051808381526020018281526020019250505060405180910390206001900416965060028d049c50600060018e161415610d055786955070010000000000000000000000000000000084049450610d1f565b700100000000000000000000000000000000840495508694505b6fffffffffffffffffffffffffffffffff8686604051808381526020018281526020019250505060405180910390206001900416965060028d049c508080600101915050610c47565b8215610df55760208282010260208b0101519350600060018e161415610da5578695506fffffffffffffffffffffffffffffffff84169450610dbe565b6fffffffffffffffffffffffffffffffff841695508694505b6fffffffffffffffffffffffffffffffff868660405180838152602001828152602001925050506040518091039020600190041696505b8697505050505050505095945050505050565b6000806000807001000000000000000000000000000000006c01000000000000000000000000876007601081101515610e3d57fe5b60200201510268010000000000000000886006601081101515610e5c57fe5b602002015102640100000000896005601081101515610e7757fe5b602002015102896004601081101515610e8c57fe5b6020020151010101026c01000000000000000000000000876003601081101515610eb257fe5b60200201510268010000000000000000886002601081101515610ed157fe5b602002015102640100000000896001601081101515610eec57fe5b602002015102896000601081101515610f0157fe5b60200201510101010192507001000000000000000000000000000000006c0100000000000000000000000087600f601081101515610f3b57fe5b6020020151026801000000000000000088600e601081101515610f5a57fe5b60200201510264010000000089600d601081101515610f7557fe5b60200201510289600c601081101515610f8a57fe5b6020020151010101026c0100000000000000000000000087600b601081101515610fb057fe5b6020020151026801000000000000000088600a601081101515610fcf57fe5b602002015102640100000000896009601081101515610fea57fe5b602002015102896008601081101515610fff57fe5b60200201510101010191507001000000000000000000000000000000006c0100000000000000000000000086600760088110151561103957fe5b6020020151026801000000000000000087600660088110151561105857fe5b60200201510264010000000088600560088110151561107357fe5b60200201510288600460088110151561108857fe5b6020020151010101026c010000000000000000000000008660036008811015156110ae57fe5b602002015102680100000000000000008760026008811015156110cd57fe5b6020020151026401000000008860016008811015156110e857fe5b6020020151028860006008811015156110fd57fe5b60200201510101010190506111118361149c565b61111a8361149c565b6111238361149c565b604051808481526020018381526020018281526020019350505050604051809103902060019004935050505092915050565b6000806000809150600090505b6020811015611197576101008202915060ff8416820191506101008481151561118757fe5b0493508080600101915050611162565b8192505050919050565b6111a9613388565b60008060006111b661347b565b60008060006111c3613388565b6000604860086009021415156111d857600080fd5b60018b60056009811015156111e957fe5b6020020181815250506780000000000000008b600860098110151561120a57fe5b602002018181525050604898506008975060086009029650600094505b888781151561123257fe5b048510156112f357600093505b60058410156112db57600092505b60058310156112ce57878981151561126157fe5b0484600502840110156112c1578a846005028460098802010160098110151561128657fe5b60200201518685856005020160198110151561129e57fe5b602002015118868585600502016019811015156112b757fe5b6020020181815250505b828060010193505061124d565b838060010194505061123f565b6112e4866114e8565b95508480600101955050611227565b600090505b60108110156113de57600093505b60058410156113d957600092505b60058310156113cc57878981151561132857fe5b0484600502840110801561133c5750601081105b156113bf5763ffffffff8685856005020160198110151561135957fe5b602002015116828260108110151561136d57fe5b6020020181815250506401000000008685856005020160198110151561138f57fe5b602002015181151561139d57fe5b0482600183016010811015156113af57fe5b6020020181815250506002810190505b8280600101935050611314565b8380600101945050611306565b6112f8565b819950505050505050505050919050565b6000828260040281518110151561140257fe5b90602001906020020151836001846004020181518110151561142057fe5b90602001906020020151846002856004020181518110151561143e57fe5b90602001906020020151856003866004020181518110151561145c57fe5b9060200190602002015160405180858152602001848152602001838152602001828152602001945050505050604051809103902060019004905092915050565b6000806000809150600090505b60208110156114de576101008202915060ff841682019150610100848115156114ce57fe5b04935080806001019150506114a9565b8192505050919050565b6114f061347b565b6114f86134a4565b6115006134a4565b61150861347b565b6115106134cc565b60006103006040519081016040528060018152602001618082815260200167800000000000808a8152602001678000000080008000815260200161808b81526020016380000001815260200167800000008000808181526020016780000000000080098152602001608a81526020016088815260200163800080098152602001638000000a8152602001638000808b815260200167800000000000008b8152602001678000000000008089815260200167800000000000800381526020016780000000000080028152602001678000000000000080815260200161800a815260200167800000008000000a815260200167800000008000808181526020016780000000000080808152602001638000000181526020016780000000800080088152509150600090505b601881101561337b5786600460198110151561165157fe5b602002015187600360198110151561166557fe5b602002015188600260198110151561167957fe5b602002015189600160198110151561168d57fe5b60200201518a60006019811015156116a157fe5b6020020151181818188560006005811015156116b957fe5b6020020181815250508660096019811015156116d157fe5b60200201518760086019811015156116e557fe5b60200201518860076019811015156116f957fe5b602002015189600660198110151561170d57fe5b60200201518a600560198110151561172157fe5b60200201511818181885600160058110151561173957fe5b60200201818152505086600e60198110151561175157fe5b602002015187600d60198110151561176557fe5b602002015188600c60198110151561177957fe5b602002015189600b60198110151561178d57fe5b60200201518a600a6019811015156117a157fe5b6020020151181818188560026005811015156117b957fe5b6020020181815250508660136019811015156117d157fe5b60200201518760126019811015156117e557fe5b60200201518860116019811015156117f957fe5b602002015189601060198110151561180d57fe5b60200201518a600f60198110151561182157fe5b60200201511818181885600360058110151561183957fe5b60200201818152505086601860198110151561185157fe5b602002015187601760198110151561186557fe5b602002015188601660198110151561187957fe5b602002015189601560198110151561188d57fe5b60200201518a60146019811015156118a157fe5b6020020151181818188560046005811015156118b957fe5b6020020181815250506780000000000000008560016005811015156118da57fe5b60200201518115156118e857fe5b0467ffffffffffffffff600287600160058110151561190357fe5b602002015102161785600460058110151561191a57fe5b60200201511884600060058110151561192f57fe5b60200201818152505067800000000000000085600260058110151561195057fe5b602002015181151561195e57fe5b0467ffffffffffffffff600287600260058110151561197957fe5b602002015102161785600060058110151561199057fe5b6020020151188460016005811015156119a557fe5b6020020181815250506780000000000000008560036005811015156119c657fe5b60200201518115156119d457fe5b0467ffffffffffffffff60028760036005811015156119ef57fe5b6020020151021617856001600581101515611a0657fe5b602002015118846002600581101515611a1b57fe5b602002018181525050678000000000000000856004600581101515611a3c57fe5b6020020151811515611a4a57fe5b0467ffffffffffffffff6002876004600581101515611a6557fe5b6020020151021617856002600581101515611a7c57fe5b602002015118846003600581101515611a9157fe5b602002018181525050678000000000000000856000600581101515611ab257fe5b6020020151811515611ac057fe5b0467ffffffffffffffff6002876000600581101515611adb57fe5b6020020151021617856003600581101515611af257fe5b602002015118846004600581101515611b0757fe5b602002018181525050836000600581101515611b1f57fe5b6020020151876000601981101515611b3357fe5b602002015118876000601981101515611b4857fe5b602002018181525050836000600581101515611b6057fe5b6020020151876001601981101515611b7457fe5b602002015118876001601981101515611b8957fe5b602002018181525050836000600581101515611ba157fe5b6020020151876002601981101515611bb557fe5b602002015118876002601981101515611bca57fe5b602002018181525050836000600581101515611be257fe5b6020020151876003601981101515611bf657fe5b602002015118876003601981101515611c0b57fe5b602002018181525050836000600581101515611c2357fe5b6020020151876004601981101515611c3757fe5b602002015118876004601981101515611c4c57fe5b602002018181525050836001600581101515611c6457fe5b6020020151876005601981101515611c7857fe5b602002015118876005601981101515611c8d57fe5b602002018181525050836001600581101515611ca557fe5b6020020151876006601981101515611cb957fe5b602002015118876006601981101515611cce57fe5b602002018181525050836001600581101515611ce657fe5b6020020151876007601981101515611cfa57fe5b602002015118876007601981101515611d0f57fe5b602002018181525050836001600581101515611d2757fe5b6020020151876008601981101515611d3b57fe5b602002015118876008601981101515611d5057fe5b602002018181525050836001600581101515611d6857fe5b6020020151876009601981101515611d7c57fe5b602002015118876009601981101515611d9157fe5b602002018181525050836002600581101515611da957fe5b602002015187600a601981101515611dbd57fe5b60200201511887600a601981101515611dd257fe5b602002018181525050836002600581101515611dea57fe5b602002015187600b601981101515611dfe57fe5b60200201511887600b601981101515611e1357fe5b602002018181525050836002600581101515611e2b57fe5b602002015187600c601981101515611e3f57fe5b60200201511887600c601981101515611e5457fe5b602002018181525050836002600581101515611e6c57fe5b602002015187600d601981101515611e8057fe5b60200201511887600d601981101515611e9557fe5b602002018181525050836002600581101515611ead57fe5b602002015187600e601981101515611ec157fe5b60200201511887600e601981101515611ed657fe5b602002018181525050836003600581101515611eee57fe5b602002015187600f601981101515611f0257fe5b60200201511887600f601981101515611f1757fe5b602002018181525050836003600581101515611f2f57fe5b6020020151876010601981101515611f4357fe5b602002015118876010601981101515611f5857fe5b602002018181525050836003600581101515611f7057fe5b6020020151876011601981101515611f8457fe5b602002015118876011601981101515611f9957fe5b602002018181525050836003600581101515611fb157fe5b6020020151876012601981101515611fc557fe5b602002015118876012601981101515611fda57fe5b602002018181525050836003600581101515611ff257fe5b602002015187601360198110151561200657fe5b60200201511887601360198110151561201b57fe5b60200201818152505083600460058110151561203357fe5b602002015187601460198110151561204757fe5b60200201511887601460198110151561205c57fe5b60200201818152505083600460058110151561207457fe5b602002015187601560198110151561208857fe5b60200201511887601560198110151561209d57fe5b6020020181815250508360046005811015156120b557fe5b60200201518760166019811015156120c957fe5b6020020151188760166019811015156120de57fe5b6020020181815250508360046005811015156120f657fe5b602002015187601760198110151561210a57fe5b60200201511887601760198110151561211f57fe5b60200201818152505083600460058110151561213757fe5b602002015187601860198110151561214b57fe5b60200201511887601860198110151561216057fe5b60200201818152505086600060198110151561217857fe5b602002015183600060198110151561218c57fe5b60200201818152505063100000008760016019811015156121a957fe5b60200201518115156121b757fe5b0467ffffffffffffffff6410000000008960016019811015156121d657fe5b60200201510216178360086019811015156121ed57fe5b60200201818152505067200000000000000087600260198110151561220e57fe5b602002015181151561221c57fe5b0467ffffffffffffffff600889600260198110151561223757fe5b602002015102161783600b60198110151561224e57fe5b6020020181815250506280000087600360198110151561226a57fe5b602002015181151561227857fe5b0467ffffffffffffffff6502000000000089600360198110151561229857fe5b60200201510216178360136019811015156122af57fe5b602002018181525050654000000000008760046019811015156122ce57fe5b60200201518115156122dc57fe5b0467ffffffffffffffff620400008960046019811015156122f957fe5b602002015102161783601660198110151561231057fe5b60200201818152505067800000000000000087600560198110151561233157fe5b602002015181151561233f57fe5b0467ffffffffffffffff600289600560198110151561235a57fe5b602002015102161783600260198110151561237157fe5b6020020181815250506210000087600660198110151561238d57fe5b602002015181151561239b57fe5b0467ffffffffffffffff651000000000008960066019811015156123bb57fe5b60200201510216178360056019811015156123d257fe5b60200201818152505066400000000000008760076019811015156123f257fe5b602002015181151561240057fe5b0467ffffffffffffffff61040089600760198110151561241c57fe5b602002015102161783600d60198110151561243357fe5b6020020181815250506208000087600860198110151561244f57fe5b602002015181151561245d57fe5b0467ffffffffffffffff6520000000000089600860198110151561247d57fe5b602002015102161783601060198110151561249457fe5b6020020181815250506740000000000000008760096019811015156124b557fe5b60200201518115156124c357fe5b0467ffffffffffffffff60048960096019811015156124de57fe5b60200201510216178360186019811015156124f557fe5b602002018181525050600487600a60198110151561250f57fe5b602002015181151561251d57fe5b0467ffffffffffffffff67400000000000000089600a60198110151561253f57fe5b602002015102161783600460198110151561255657fe5b60200201818152505067040000000000000087600b60198110151561257757fe5b602002015181151561258557fe5b0467ffffffffffffffff604089600b6019811015156125a057fe5b60200201510216178360076019811015156125b757fe5b6020020181815250506220000087600c6019811015156125d357fe5b60200201518115156125e157fe5b0467ffffffffffffffff6508000000000089600c60198110151561260157fe5b602002015102161783600a60198110151561261857fe5b602002018181525050660200000000000087600d60198110151561263857fe5b602002015181151561264657fe5b0467ffffffffffffffff61800089600d60198110151561266257fe5b602002015102161783601260198110151561267957fe5b602002018181525050600887600e60198110151561269357fe5b60200201518115156126a157fe5b0467ffffffffffffffff67200000000000000089600e6019811015156126c357fe5b60200201510216178360156019811015156126da57fe5b60200201818152505064100000000087600f6019811015156126f857fe5b602002015181151561270657fe5b0467ffffffffffffffff631000000089600f60198110151561272457fe5b602002015102161783600160198110151561273b57fe5b60200201818152505061020087601060198110151561275657fe5b602002015181151561276457fe5b0467ffffffffffffffff668000000000000089601060198110151561278557fe5b602002015102161783600960198110151561279c57fe5b6020020181815250506480000000008760116019811015156127ba57fe5b60200201518115156127c857fe5b0467ffffffffffffffff63020000008960116019811015156127e657fe5b602002015102161783600c6019811015156127fd57fe5b6020020181815250506508000000000087601260198110151561281c57fe5b602002015181151561282a57fe5b0467ffffffffffffffff6220000089601260198110151561284757fe5b602002015102161783600f60198110151561285e57fe5b60200201818152505061010087601360198110151561287957fe5b602002015181151561288757fe5b0467ffffffffffffffff6701000000000000008960136019811015156128a957fe5b60200201510216178360176019811015156128c057fe5b6020020181815250506420000000008760146019811015156128de57fe5b60200201518115156128ec57fe5b0467ffffffffffffffff630800000089601460198110151561290a57fe5b602002015102161783600360198110151561292157fe5b6020020181815250506510000000000087601560198110151561294057fe5b602002015181151561294e57fe5b0467ffffffffffffffff6210000089601560198110151561296b57fe5b602002015102161783600660198110151561298257fe5b602002018181525050630200000087601660198110151561299f57fe5b60200201518115156129ad57fe5b0467ffffffffffffffff6480000000008960166019811015156129cc57fe5b602002015102161783600e6019811015156129e357fe5b602002018181525050670100000000000000876017601981101515612a0457fe5b6020020151811515612a1257fe5b0467ffffffffffffffff610100896017601981101515612a2e57fe5b6020020151021617836011601981101515612a4557fe5b6020020181815250506604000000000000876018601981101515612a6557fe5b6020020151811515612a7357fe5b0467ffffffffffffffff614000896018601981101515612a8f57fe5b6020020151021617836014601981101515612aa657fe5b60200201818152505082600a601981101515612abe57fe5b6020020151836005601981101515612ad257fe5b60200201511916836000601981101515612ae857fe5b602002015118876000601981101515612afd57fe5b60200201818152505082600b601981101515612b1557fe5b6020020151836006601981101515612b2957fe5b60200201511916836001601981101515612b3f57fe5b602002015118876001601981101515612b5457fe5b60200201818152505082600c601981101515612b6c57fe5b6020020151836007601981101515612b8057fe5b60200201511916836002601981101515612b9657fe5b602002015118876002601981101515612bab57fe5b60200201818152505082600d601981101515612bc357fe5b6020020151836008601981101515612bd757fe5b60200201511916836003601981101515612bed57fe5b602002015118876003601981101515612c0257fe5b60200201818152505082600e601981101515612c1a57fe5b6020020151836009601981101515612c2e57fe5b60200201511916836004601981101515612c4457fe5b602002015118876004601981101515612c5957fe5b60200201818152505082600f601981101515612c7157fe5b602002015183600a601981101515612c8557fe5b60200201511916836005601981101515612c9b57fe5b602002015118876005601981101515612cb057fe5b602002018181525050826010601981101515612cc857fe5b602002015183600b601981101515612cdc57fe5b60200201511916836006601981101515612cf257fe5b602002015118876006601981101515612d0757fe5b602002018181525050826011601981101515612d1f57fe5b602002015183600c601981101515612d3357fe5b60200201511916836007601981101515612d4957fe5b602002015118876007601981101515612d5e57fe5b602002018181525050826012601981101515612d7657fe5b602002015183600d601981101515612d8a57fe5b60200201511916836008601981101515612da057fe5b602002015118876008601981101515612db557fe5b602002018181525050826013601981101515612dcd57fe5b602002015183600e601981101515612de157fe5b60200201511916836009601981101515612df757fe5b602002015118876009601981101515612e0c57fe5b602002018181525050826014601981101515612e2457fe5b602002015183600f601981101515612e3857fe5b6020020151191683600a601981101515612e4e57fe5b60200201511887600a601981101515612e6357fe5b602002018181525050826015601981101515612e7b57fe5b6020020151836010601981101515612e8f57fe5b6020020151191683600b601981101515612ea557fe5b60200201511887600b601981101515612eba57fe5b602002018181525050826016601981101515612ed257fe5b6020020151836011601981101515612ee657fe5b6020020151191683600c601981101515612efc57fe5b60200201511887600c601981101515612f1157fe5b602002018181525050826017601981101515612f2957fe5b6020020151836012601981101515612f3d57fe5b6020020151191683600d601981101515612f5357fe5b60200201511887600d601981101515612f6857fe5b602002018181525050826018601981101515612f8057fe5b6020020151836013601981101515612f9457fe5b6020020151191683600e601981101515612faa57fe5b60200201511887600e601981101515612fbf57fe5b602002018181525050826000601981101515612fd757fe5b6020020151836014601981101515612feb57fe5b6020020151191683600f60198110151561300157fe5b60200201511887600f60198110151561301657fe5b60200201818152505082600160198110151561302e57fe5b602002015183601560198110151561304257fe5b6020020151191683601060198110151561305857fe5b60200201511887601060198110151561306d57fe5b60200201818152505082600260198110151561308557fe5b602002015183601660198110151561309957fe5b602002015119168360116019811015156130af57fe5b6020020151188760116019811015156130c457fe5b6020020181815250508260036019811015156130dc57fe5b60200201518360176019811015156130f057fe5b6020020151191683601260198110151561310657fe5b60200201511887601260198110151561311b57fe5b60200201818152505082600460198110151561313357fe5b602002015183601860198110151561314757fe5b6020020151191683601360198110151561315d57fe5b60200201511887601360198110151561317257fe5b60200201818152505082600560198110151561318a57fe5b602002015183600060198110151561319e57fe5b602002015119168360146019811015156131b457fe5b6020020151188760146019811015156131c957fe5b6020020181815250508260066019811015156131e157fe5b60200201518360016019811015156131f557fe5b6020020151191683601560198110151561320b57fe5b60200201511887601560198110151561322057fe5b60200201818152505082600760198110151561323857fe5b602002015183600260198110151561324c57fe5b6020020151191683601660198110151561326257fe5b60200201511887601660198110151561327757fe5b60200201818152505082600860198110151561328f57fe5b60200201518360036019811015156132a357fe5b602002015119168360176019811015156132b957fe5b6020020151188760176019811015156132ce57fe5b6020020181815250508260096019811015156132e657fe5b60200201518360046019811015156132fa57fe5b6020020151191683601860198110151561331057fe5b60200201511887601860198110151561332557fe5b602002018181525050818160188110151561333c57fe5b602002015187600060198110151561335057fe5b60200201511887600060198110151561336557fe5b6020020181815250508080600101915050611639565b8695505050505050919050565b610200604051908101604052806010905b60008152602001906001900390816133995790505090565b610400604051908101604052806020905b60008152602001906001900390816133c25790505090565b610100604051908101604052806008905b60008152602001906001900390816133eb5790505090565b60408051908101604052806002905b60008152602001906001900390816134125790505090565b6060604051908101604052806003905b600081526020019060019003908161343a5790505090565b610120604051908101604052806009905b60008152602001906001900390816134635790505090565b610320604051908101604052806019905b600081526020019060019003908161348c5790505090565b60a0604051908101604052806005905b60008152602001906001900390816134b45790505090565b610300604051908101604052806018905b60008152602001906001900390816134dd57905050905600a165627a7a72305820aa71d142b25a15a5beb53c71f561eb710a73336c9168fe2136d34e402bda77bc0029",
  "source": "pragma solidity ^0.4.13;\n\n//solc --bin --abi --optimize  --optimize-runs 20000 -o . Testpool.sol \n\n\n//import \"./SHA3_512.sol\";\n\ncontract SHA3_512 {\n    function SHA3_512() {}\n    \n    function keccak_f(uint[25] A) constant internal returns(uint[25]) {\n        uint[5] memory C;\n        uint[5] memory D;\n        //uint x;\n        //uint y;\n        //uint D_0; uint D_1; uint D_2; uint D_3; uint D_4;\n        uint[25] memory B;\n        \n        uint[24] memory RC= [\n                   uint(0x0000000000000001),\n                   0x0000000000008082,\n                   0x800000000000808A,\n                   0x8000000080008000,\n                   0x000000000000808B,\n                   0x0000000080000001,\n                   0x8000000080008081,\n                   0x8000000000008009,\n                   0x000000000000008A,\n                   0x0000000000000088,\n                   0x0000000080008009,\n                   0x000000008000000A,\n                   0x000000008000808B,\n                   0x800000000000008B,\n                   0x8000000000008089,\n                   0x8000000000008003,\n                   0x8000000000008002,\n                   0x8000000000000080,\n                   0x000000000000800A,\n                   0x800000008000000A,\n                   0x8000000080008081,\n                   0x8000000000008080,\n                   0x0000000080000001,\n                   0x8000000080008008 ];\n        \n        for( uint i = 0 ; i < 24 ; i++ ) {\n            /*\n            for( x = 0 ; x < 5 ; x++ ) {\n                C[x] = A[5*x]^A[5*x+1]^A[5*x+2]^A[5*x+3]^A[5*x+4];                \n            }*/\n                       \n            C[0]=A[0]^A[1]^A[2]^A[3]^A[4];\n            C[1]=A[5]^A[6]^A[7]^A[8]^A[9];\n            C[2]=A[10]^A[11]^A[12]^A[13]^A[14];\n            C[3]=A[15]^A[16]^A[17]^A[18]^A[19];\n            C[4]=A[20]^A[21]^A[22]^A[23]^A[24];\n\n            /*\n            for( x = 0 ; x < 5 ; x++ ) {\n                D[x] = C[(x+4)%5]^((C[(x+1)%5] * 2)&0xffffffffffffffff | (C[(x+1)%5]/(2**63)));\n            }*/\n                        \n            \n            D[0]=C[4] ^ ((C[1] * 2)&0xffffffffffffffff | (C[1] / (2 ** 63)));\n            D[1]=C[0] ^ ((C[2] * 2)&0xffffffffffffffff | (C[2] / (2 ** 63)));\n            D[2]=C[1] ^ ((C[3] * 2)&0xffffffffffffffff | (C[3] / (2 ** 63)));\n            D[3]=C[2] ^ ((C[4] * 2)&0xffffffffffffffff | (C[4] / (2 ** 63)));\n            D[4]=C[3] ^ ((C[0] * 2)&0xffffffffffffffff | (C[0] / (2 ** 63)));\n\n            /*\n            for( x = 0 ; x < 5 ; x++ ) {\n                for( y = 0 ; y < 5 ; y++ ) {\n                    A[5*x+y] = A[5*x+y] ^ D[x];\n                }            \n            }*/\n            \n\n            \n            A[0]=A[0] ^ D[0];\n            A[1]=A[1] ^ D[0];\n            A[2]=A[2] ^ D[0];\n            A[3]=A[3] ^ D[0];\n            A[4]=A[4] ^ D[0];\n            A[5]=A[5] ^ D[1];\n            A[6]=A[6] ^ D[1];\n            A[7]=A[7] ^ D[1];\n            A[8]=A[8] ^ D[1];\n            A[9]=A[9] ^ D[1];\n            A[10]=A[10] ^ D[2];\n            A[11]=A[11] ^ D[2];\n            A[12]=A[12] ^ D[2];\n            A[13]=A[13] ^ D[2];\n            A[14]=A[14] ^ D[2];\n            A[15]=A[15] ^ D[3];\n            A[16]=A[16] ^ D[3];\n            A[17]=A[17] ^ D[3];\n            A[18]=A[18] ^ D[3];\n            A[19]=A[19] ^ D[3];\n            A[20]=A[20] ^ D[4];\n            A[21]=A[21] ^ D[4];\n            A[22]=A[22] ^ D[4];\n            A[23]=A[23] ^ D[4];\n            A[24]=A[24] ^ D[4];\n\n            /*Rho and pi steps*/            \n            B[0]=A[0];\n            B[8]=((A[1] * (2 ** 36))&0xffffffffffffffff | (A[1] / (2 ** 28)));\n            B[11]=((A[2] * (2 ** 3))&0xffffffffffffffff | (A[2] / (2 ** 61)));\n            B[19]=((A[3] * (2 ** 41))&0xffffffffffffffff | (A[3] / (2 ** 23)));\n            B[22]=((A[4] * (2 ** 18))&0xffffffffffffffff | (A[4] / (2 ** 46)));\n            B[2]=((A[5] * (2 ** 1))&0xffffffffffffffff | (A[5] / (2 ** 63)));\n            B[5]=((A[6] * (2 ** 44))&0xffffffffffffffff | (A[6] / (2 ** 20)));\n            B[13]=((A[7] * (2 ** 10))&0xffffffffffffffff | (A[7] / (2 ** 54)));\n            B[16]=((A[8] * (2 ** 45))&0xffffffffffffffff | (A[8] / (2 ** 19)));\n            B[24]=((A[9] * (2 ** 2))&0xffffffffffffffff | (A[9] / (2 ** 62)));\n            B[4]=((A[10] * (2 ** 62))&0xffffffffffffffff | (A[10] / (2 ** 2)));\n            B[7]=((A[11] * (2 ** 6))&0xffffffffffffffff | (A[11] / (2 ** 58)));\n            B[10]=((A[12] * (2 ** 43))&0xffffffffffffffff | (A[12] / (2 ** 21)));\n            B[18]=((A[13] * (2 ** 15))&0xffffffffffffffff | (A[13] / (2 ** 49)));\n            B[21]=((A[14] * (2 ** 61))&0xffffffffffffffff | (A[14] / (2 ** 3)));\n            B[1]=((A[15] * (2 ** 28))&0xffffffffffffffff | (A[15] / (2 ** 36)));\n            B[9]=((A[16] * (2 ** 55))&0xffffffffffffffff | (A[16] / (2 ** 9)));\n            B[12]=((A[17] * (2 ** 25))&0xffffffffffffffff | (A[17] / (2 ** 39)));\n            B[15]=((A[18] * (2 ** 21))&0xffffffffffffffff | (A[18] / (2 ** 43)));\n            B[23]=((A[19] * (2 ** 56))&0xffffffffffffffff | (A[19] / (2 ** 8)));\n            B[3]=((A[20] * (2 ** 27))&0xffffffffffffffff | (A[20] / (2 ** 37)));\n            B[6]=((A[21] * (2 ** 20))&0xffffffffffffffff | (A[21] / (2 ** 44)));\n            B[14]=((A[22] * (2 ** 39))&0xffffffffffffffff | (A[22] / (2 ** 25)));\n            B[17]=((A[23] * (2 ** 8))&0xffffffffffffffff | (A[23] / (2 ** 56)));\n            B[20]=((A[24] * (2 ** 14))&0xffffffffffffffff | (A[24] / (2 ** 50)));\n\n            /*Xi state*/\n            /*\n            for( x = 0 ; x < 5 ; x++ ) {\n                for( y = 0 ; y < 5 ; y++ ) {\n                    A[5*x+y] = B[5*x+y]^((~B[5*((x+1)%5)+y]) & B[5*((x+2)%5)+y]);\n                }\n            }*/\n            \n            \n            A[0]=B[0]^((~B[5]) & B[10]);\n            A[1]=B[1]^((~B[6]) & B[11]);\n            A[2]=B[2]^((~B[7]) & B[12]);\n            A[3]=B[3]^((~B[8]) & B[13]);\n            A[4]=B[4]^((~B[9]) & B[14]);\n            A[5]=B[5]^((~B[10]) & B[15]);\n            A[6]=B[6]^((~B[11]) & B[16]);\n            A[7]=B[7]^((~B[12]) & B[17]);\n            A[8]=B[8]^((~B[13]) & B[18]);\n            A[9]=B[9]^((~B[14]) & B[19]);\n            A[10]=B[10]^((~B[15]) & B[20]);\n            A[11]=B[11]^((~B[16]) & B[21]);\n            A[12]=B[12]^((~B[17]) & B[22]);\n            A[13]=B[13]^((~B[18]) & B[23]);\n            A[14]=B[14]^((~B[19]) & B[24]);\n            A[15]=B[15]^((~B[20]) & B[0]);\n            A[16]=B[16]^((~B[21]) & B[1]);\n            A[17]=B[17]^((~B[22]) & B[2]);\n            A[18]=B[18]^((~B[23]) & B[3]);\n            A[19]=B[19]^((~B[24]) & B[4]);\n            A[20]=B[20]^((~B[0]) & B[5]);\n            A[21]=B[21]^((~B[1]) & B[6]);\n            A[22]=B[22]^((~B[2]) & B[7]);\n            A[23]=B[23]^((~B[3]) & B[8]);\n            A[24]=B[24]^((~B[4]) & B[9]);\n\n            /*Last step*/\n            A[0]=A[0]^RC[i];            \n        }\n\n        \n        return A;\n    }\n \n    \n    function sponge(uint[9] M) constant internal returns(uint[16]) {\n        require( (M.length * 8) == 72 );\n        M[5] = 0x01;\n        M[8] = 0x8000000000000000;\n        \n        uint r = 72;\n        uint w = 8;\n        uint size = M.length * 8;\n        \n        uint[25] memory S;\n        uint i; uint y; uint x;\n        /*Absorbing Phase*/\n        for( i = 0 ; i < size/r ; i++ ) {\n            for( y = 0 ; y < 5 ; y++ ) {\n                for( x = 0 ; x < 5 ; x++ ) {\n                    if( (x+5*y) < (r/w) ) {\n                        S[5*x+y] = S[5*x+y] ^ M[i*9 + x + 5*y];\n                    }\n                }\n            }\n            S = keccak_f(S);\n        }\n\n        /*Squeezing phase*/\n        uint[16] memory result;\n        uint b = 0;\n        while( b < 16 ) {\n            for( y = 0 ; y < 5 ; y++ ) {\n                for( x = 0 ; x < 5 ; x++ ) {\n                    if( (x+5*y)<(r/w) && (b<16) ) {\n                        result[b] = S[5*x+y] & 0xFFFFFFFF; \n                        result[b+1] = S[5*x+y] / 0x100000000;\n                        b+=2;\n                    }\n                }\n            }\n        }\n         \n        return result;\n   }\n\n}\n\n////////////////////////////////////////////////////////////////////////////////\n\ncontract Ethash is SHA3_512 {\n    \n    mapping(address=>bool) public owners;\n    \n    function Ethash(address[3] _owners) {\n        owners[_owners[0]] = true;\n        owners[_owners[1]] = true;\n        owners[_owners[2]] = true;                \n    }\n     \n    function fnv( uint v1, uint v2 ) constant internal returns(uint) {\n        return ((v1*0x01000193) ^ v2) & 0xFFFFFFFF;\n    }\n\n\n\n    function computeCacheRoot( uint index,\n                               uint indexInElementsArray,\n                               uint[] elements,\n                               uint[] witness,\n                               uint branchSize ) constant private returns(uint) {\n \n        uint leaf = computeLeaf(elements, indexInElementsArray) & 0xFFFFFFFFFFFFFFFFFFFFFFFFFFFFFFFF;\n\n        uint left;\n        uint right;\n        uint node;\n        bool oddBranchSize = (branchSize % 2) > 0;\n                          \n        assembly {\n            branchSize := div(branchSize,2)\n            //branchSize /= 2;\n        }\n        uint witnessIndex = indexInElementsArray * branchSize;\n        if( oddBranchSize ) witnessIndex += indexInElementsArray;  \n\n        for( uint depth = 0 ; depth < branchSize ; depth++ ) {\n            assembly {\n                node := mload(add(add(witness,0x20),mul(add(depth,witnessIndex),0x20)))\n            }\n            //node  = witness[witnessIndex + depth] & 0xFFFFFFFFFFFFFFFFFFFFFFFFFFFFFFFF;\n            if( index & 0x1 == 0 ) {\n                left = leaf;\n                assembly{\n                    //right = node & 0xFFFFFFFFFFFFFFFFFFFFFFFFFFFFFFFF;                \n                    right := and(node,0xFFFFFFFFFFFFFFFFFFFFFFFFFFFFFFFF)\n                }\n                \n            }\n            else {\n                assembly{\n                    //left = node & 0xFFFFFFFFFFFFFFFFFFFFFFFFFFFFFFFF;\n                    left := and(node,0xFFFFFFFFFFFFFFFFFFFFFFFFFFFFFFFF)\n                }\n                right = leaf;\n            }\n            \n            leaf = uint(sha3(left,right)) & 0xFFFFFFFFFFFFFFFFFFFFFFFFFFFFFFFF;\n            assembly {\n                index := div(index,2) \n            }\n            //index = index / 2;\n\n            //node  = witness[witnessIndex + depth] / (2**128);\n            if( index & 0x1 == 0 ) {\n                left = leaf;\n                assembly{\n                    right := div(node,0x100000000000000000000000000000000)\n                    //right = node / 0x100000000000000000000000000000000;\n                }\n            }\n            else {\n                assembly {\n                    //left = node / 0x100000000000000000000000000000000;\n                    left := div(node,0x100000000000000000000000000000000)\n                }\n                right = leaf;\n            }\n            \n            leaf = uint(sha3(left,right)) & 0xFFFFFFFFFFFFFFFFFFFFFFFFFFFFFFFF;\n            assembly {\n                index := div(index,2) \n            }\n            //index = index / 2;\n        }\n        \n        if( oddBranchSize ) {\n            assembly {\n                node := mload(add(add(witness,0x20),mul(add(depth,witnessIndex),0x20)))\n            }\n        \n            //node  = witness[witnessIndex + depth] & 0xFFFFFFFFFFFFFFFFFFFFFFFFFFFFFFFF;\n            if( index & 0x1 == 0 ) {\n                left = leaf;\n                assembly{\n                    //right = node & 0xFFFFFFFFFFFFFFFFFFFFFFFFFFFFFFFF;                \n                    right := and(node,0xFFFFFFFFFFFFFFFFFFFFFFFFFFFFFFFF)\n                }                \n            }\n            else {\n                assembly{\n                    //left = node & 0xFFFFFFFFFFFFFFFFFFFFFFFFFFFFFFFF;                \n                    left := and(node,0xFFFFFFFFFFFFFFFFFFFFFFFFFFFFFFFF)\n                }\n            \n                right = leaf;\n            }\n            \n            leaf = uint(sha3(left,right)) & 0xFFFFFFFFFFFFFFFFFFFFFFFFFFFFFFFF;        \n        }\n        \n        \n        return leaf;\n    }\n\n    \n    function toBE( uint x ) constant internal returns(uint) {\n        uint y = 0;\n        for( uint i = 0 ; i < 32 ; i++ ) {\n            y = y * 256;\n            y += (x & 0xFF);\n            x = x / 256;            \n        }\n        \n        return y;\n        \n    }\n    \n    function computeSha3( uint[16] s, uint[8] cmix ) constant internal returns(uint) {\n        uint s0 = s[0] + s[1] * (2**32) + s[2] * (2**64) + s[3] * (2**96) +\n                  (s[4] + s[5] * (2**32) + s[6] * (2**64) + s[7] * (2**96))*(2**128);\n\n        uint s1 = s[8] + s[9] * (2**32) + s[10] * (2**64) + s[11] * (2**96) +\n                  (s[12] + s[13] * (2**32) + s[14] * (2**64) + s[15] * (2**96))*(2**128);\n                  \n        uint c = cmix[0] + cmix[1] * (2**32) + cmix[2] * (2**64) + cmix[3] * (2**96) +\n                  (cmix[4] + cmix[5] * (2**32) + cmix[6] * (2**64) + cmix[7] * (2**96))*(2**128);\n\n        \n        /* god knows why need to convert to big endian */\n        return uint( sha3(toBE(s0),toBE(s1),toBE(c)) );\n    }\n \n \n    function computeLeaf( uint[] dataSetLookup, uint index ) constant internal returns(uint) {\n        return uint( sha3(dataSetLookup[4*index],\n                          dataSetLookup[4*index + 1],\n                          dataSetLookup[4*index + 2],\n                          dataSetLookup[4*index + 3]) );\n                                    \n    }\n \n    function computeS( uint header, uint nonceLe ) constant internal returns(uint[16]) {\n        uint[9]  memory M;\n        \n        header = reverseBytes(header);\n        \n        M[0] = uint(header) & 0xFFFFFFFFFFFFFFFF;\n        header = header / 2**64;\n        M[1] = uint(header) & 0xFFFFFFFFFFFFFFFF;\n        header = header / 2**64;\n        M[2] = uint(header) & 0xFFFFFFFFFFFFFFFF;\n        header = header / 2**64;\n        M[3] = uint(header) & 0xFFFFFFFFFFFFFFFF;\n\n        // make little endian nonce\n        M[4] = nonceLe;\n        return sponge(M);\n    }\n    \n    function reverseBytes( uint input ) constant internal returns(uint) {\n        uint result = 0;\n        for(uint i = 0 ; i < 32 ; i++ ) {\n            result = result * 256;\n            result += input & 0xff;\n            \n            input /= 256;\n        }\n        \n        return result;\n    }\n    \n    struct EthashCacheOptData {\n        uint[512]         merkleNodes;\n        uint              fullSizeIn128Resultion;\n        uint              branchDepth;\n    }\n    \n    mapping(uint=>EthashCacheOptData) epochData;\n    \n    function getEpochData( uint epochIndex, uint nodeIndex ) constant returns(uint[3]) {\n        return [epochData[epochIndex].merkleNodes[nodeIndex],\n                epochData[epochIndex].fullSizeIn128Resultion,\n                epochData[epochIndex].branchDepth];\n    }\n    \n    function isEpochDataSet( uint epochIndex ) constant returns(bool) {\n        return epochData[epochIndex].fullSizeIn128Resultion != 0;\n    \n    }\n        \n    event SetEpochData( address indexed sender, uint error, uint errorInfo );    \n    function setEpochData( uint epoch,\n                           uint fullSizeIn128Resultion,\n                           uint branchDepth,\n                           uint[] merkleNodes,\n                           uint start,\n                           uint numElems ) {\n\n        if( ! owners[msg.sender] ) {\n            //ErrorLog( \"setEpochData: only owner can set data\", uint(msg.sender) );\n            SetEpochData( msg.sender, 0x82000000, uint(msg.sender) );\n            return;        \n        }                           \n                           \n        for( uint i = 0 ; i < numElems ; i++ ) {\n            if( epochData[epoch].merkleNodes[start+i] > 0 ) {\n                //ErrorLog(\"epoch already set\", epoch[i]);\n                SetEpochData( msg.sender, 0x82000001, epoch * (2**128) + start + i );\n                return;            \n\n            } \n            epochData[epoch].merkleNodes[start+i] = merkleNodes[i];\n        }\n        epochData[epoch].fullSizeIn128Resultion = fullSizeIn128Resultion;\n        epochData[epoch].branchDepth = branchDepth;\n        \n        SetEpochData( msg.sender, 0 , 0 );        \n    }\n\n    function getMerkleLeave( uint epochIndex, uint p ) constant internal returns(uint) {        \n        uint rootIndex = p >> epochData[epochIndex].branchDepth;\n        uint expectedRoot = epochData[epochIndex].merkleNodes[(rootIndex/2)];\n        if( (rootIndex % 2) == 0 ) expectedRoot = expectedRoot & 0xFFFFFFFFFFFFFFFFFFFFFFFFFFFFFFFF;\n        else expectedRoot = expectedRoot / (2**128);\n        \n        return expectedRoot;\n    }\n\n\n    function hashimoto( bytes32      header,\n                        bytes8       nonceLe,\n                        uint[]       dataSetLookup,\n                        uint[]       witnessForLookup,\n                        uint         epochIndex ) constant returns(uint) {\n         \n        uint[16] memory s;\n        uint[32] memory mix;\n        uint[8]  memory cmix;\n        \n        uint[2]  memory depthAndFullSize = [epochData[epochIndex].branchDepth, \n                                            epochData[epochIndex].fullSizeIn128Resultion];\n                \n        uint i;\n        uint j;\n        \n        if( ! isEpochDataSet( epochIndex ) ) return 0xFFFFFFFFFFFFFFFFFFFFFFFFFFFFFFFFFFFFFFFFFFFFFFFFFFFFFFFFFFFFFFFE;\n        \n        if( depthAndFullSize[1] == 0 ) {\n            return 0xFFFFFFFFFFFFFFFFFFFFFFFFFFFFFFFFFFFFFFFFFFFFFFFFFFFFFFFFFFFFFFFF;\n        }\n\n        \n        s = computeS(uint(header), uint(nonceLe));\n        for( i = 0 ; i < 16 ; i++ ) {            \n            assembly {\n                let offset := mul(i,0x20)\n                \n                //mix[i] = s[i];\n                mstore(add(mix,offset),mload(add(s,offset)))\n                \n                // mix[i+16] = s[i];\n                mstore(add(mix,add(0x200,offset)),mload(add(s,offset)))    \n            }\n        }\n\n        for( i = 0 ; i < 64 ; i++ ) {\n            uint p = fnv( i ^ s[0], mix[i % 32]) % depthAndFullSize[1];\n            \n            \n            if( computeCacheRoot( p, i, dataSetLookup,  witnessForLookup, depthAndFullSize[0] )  != getMerkleLeave( epochIndex, p ) ) {\n            \n                // PoW failed\n                return 0xFFFFFFFFFFFFFFFFFFFFFFFFFFFFFFFFFFFFFFFFFFFFFFFFFFFFFFFFFFFFFFFF;\n            }       \n\n            for( j = 0 ; j < 8 ; j++ ) {\n\n                assembly{\n                    //mix[j] = fnv(mix[j], dataSetLookup[4*i] & varFFFFFFFF );\n                    let dataOffset := add(mul(0x80,i),add(dataSetLookup,0x20))\n                    let dataValue   := and(mload(dataOffset),0xFFFFFFFF)\n                    \n                    let mixOffset := add(mix,mul(0x20,j))\n                    let mixValue  := mload(mixOffset)\n                    \n                    // fnv = return ((v1*0x01000193) ^ v2) & 0xFFFFFFFF;\n                    let fnvValue := and(xor(mul(mixValue,0x01000193),dataValue),0xFFFFFFFF)                    \n                    mstore(mixOffset,fnvValue)\n                    \n                    //mix[j+8] = fnv(mix[j+8], dataSetLookup[4*i + 1] & 0xFFFFFFFF );\n                    dataOffset := add(dataOffset,0x20)\n                    dataValue   := and(mload(dataOffset),0xFFFFFFFF)\n                    \n                    mixOffset := add(mixOffset,0x100)\n                    mixValue  := mload(mixOffset)\n                    \n                    // fnv = return ((v1*0x01000193) ^ v2) & 0xFFFFFFFF;\n                    fnvValue := and(xor(mul(mixValue,0x01000193),dataValue),0xFFFFFFFF)                    \n                    mstore(mixOffset,fnvValue)\n\n                    //mix[j+16] = fnv(mix[j+16], dataSetLookup[4*i + 2] & 0xFFFFFFFF );\n                    dataOffset := add(dataOffset,0x20)\n                    dataValue   := and(mload(dataOffset),0xFFFFFFFF)\n                    \n                    mixOffset := add(mixOffset,0x100)\n                    mixValue  := mload(mixOffset)\n                    \n                    // fnv = return ((v1*0x01000193) ^ v2) & 0xFFFFFFFF;\n                    fnvValue := and(xor(mul(mixValue,0x01000193),dataValue),0xFFFFFFFF)                    \n                    mstore(mixOffset,fnvValue)\n\n                    //mix[j+24] = fnv(mix[j+24], dataSetLookup[4*i + 3] & 0xFFFFFFFF );\n                    dataOffset := add(dataOffset,0x20)\n                    dataValue   := and(mload(dataOffset),0xFFFFFFFF)\n                    \n                    mixOffset := add(mixOffset,0x100)\n                    mixValue  := mload(mixOffset)\n                    \n                    // fnv = return ((v1*0x01000193) ^ v2) & 0xFFFFFFFF;\n                    fnvValue := and(xor(mul(mixValue,0x01000193),dataValue),0xFFFFFFFF)                    \n                    mstore(mixOffset,fnvValue)                    \n                                        \n                }\n\n                \n                //mix[j] = fnv(mix[j], dataSetLookup[4*i] & 0xFFFFFFFF );\n                //mix[j+8] = fnv(mix[j+8], dataSetLookup[4*i + 1] & 0xFFFFFFFF );\n                //mix[j+16] = fnv(mix[j+16], dataSetLookup[4*i + 2] & 0xFFFFFFFF );                \n                //mix[j+24] = fnv(mix[j+24], dataSetLookup[4*i + 3] & 0xFFFFFFFF );\n                \n                \n                //dataSetLookup[4*i    ] = dataSetLookup[4*i    ]/(2**32);\n                //dataSetLookup[4*i + 1] = dataSetLookup[4*i + 1]/(2**32);\n                //dataSetLookup[4*i + 2] = dataSetLookup[4*i + 2]/(2**32);\n                //dataSetLookup[4*i + 3] = dataSetLookup[4*i + 3]/(2**32);                \n                \n                assembly{\n                    let offset := add(add(dataSetLookup,0x20),mul(i,0x80))\n                    let value  := div(mload(offset),0x100000000)\n                    mstore(offset,value)\n                                       \n                    offset := add(offset,0x20)\n                    value  := div(mload(offset),0x100000000)\n                    mstore(offset,value)\n                    \n                    offset := add(offset,0x20)\n                    value  := div(mload(offset),0x100000000)\n                    mstore(offset,value)                    \n                    \n                    offset := add(offset,0x20)\n                    value  := div(mload(offset),0x100000000)\n                    mstore(offset,value)                                                                                \n                }                \n            }\n        }\n        \n        \n        for( i = 0 ; i < 32 ; i += 4) {\n            cmix[i/4] = (fnv(fnv(fnv(mix[i], mix[i+1]), mix[i+2]), mix[i+3]));\n        }\n        \n\n        uint result = computeSha3(s,cmix); \n\n        return result;\n        \n    }\n}\n\n",
  "sourcePath": "/home/yaron/smartpool/contracts/contracts/Ethash.sol",
  "compiler": {
    "name": "solc",
    "version": "0.4.18+commit.9cf6e910.Emscripten.clang"
  },
  "schemaVersion": "1.0.1",
  "updatedAt": "2017-12-08T20:30:22.326Z"
}