{
  "contractName": "SmartPool",
  "abi": [
    {
      "constant": true,
      "inputs": [
        {
          "name": "",
          "type": "address"
        }
      ],
      "name": "owners",
      "outputs": [
        {
          "name": "",
          "type": "bool"
        }
      ],
      "payable": false,
      "stateMutability": "view",
      "type": "function"
    },
    {
      "constant": true,
      "inputs": [],
      "name": "newVersionReleased",
      "outputs": [
        {
          "name": "",
          "type": "bool"
        }
      ],
      "payable": false,
      "stateMutability": "view",
      "type": "function"
    },
    {
      "constant": true,
      "inputs": [],
      "name": "uncleRate",
      "outputs": [
        {
          "name": "",
          "type": "uint256"
        }
      ],
      "payable": false,
      "stateMutability": "view",
      "type": "function"
    },
    {
      "constant": true,
      "inputs": [
        {
          "name": "sender",
          "type": "address"
        }
      ],
      "name": "debugGetNumPendingSubmissions",
      "outputs": [
        {
          "name": "",
          "type": "uint256"
        }
      ],
      "payable": false,
      "stateMutability": "view",
      "type": "function"
    },
    {
      "constant": false,
      "inputs": [
        {
          "name": "amount",
          "type": "uint256"
        }
      ],
      "name": "withdraw",
      "outputs": [],
      "payable": false,
      "stateMutability": "nonpayable",
      "type": "function"
    },
    {
      "constant": true,
      "inputs": [
        {
          "name": "sender",
          "type": "address"
        }
      ],
      "name": "canRegister",
      "outputs": [
        {
          "name": "",
          "type": "bool"
        }
      ],
      "payable": false,
      "stateMutability": "view",
      "type": "function"
    },
    {
      "constant": true,
      "inputs": [],
      "name": "poolFees",
      "outputs": [
        {
          "name": "",
          "type": "uint256"
        }
      ],
      "payable": false,
      "stateMutability": "view",
      "type": "function"
    },
    {
      "constant": false,
      "inputs": [
        {
          "name": "paymentAddress",
          "type": "address"
        }
      ],
      "name": "register",
      "outputs": [],
      "payable": false,
      "stateMutability": "nonpayable",
      "type": "function"
    },
    {
      "constant": false,
      "inputs": [
        {
          "name": "_uncleRate",
          "type": "uint256"
        },
        {
          "name": "_poolFees",
          "type": "uint256"
        }
      ],
      "name": "setUnlceRateAndFees",
      "outputs": [],
      "payable": false,
      "stateMutability": "nonpayable",
      "type": "function"
    },
    {
      "constant": true,
      "inputs": [],
      "name": "version",
      "outputs": [
        {
          "name": "",
          "type": "string"
        }
      ],
      "payable": false,
      "stateMutability": "view",
      "type": "function"
    },
    {
      "constant": false,
      "inputs": [],
      "name": "debugResetSubmissions",
      "outputs": [],
      "payable": false,
      "stateMutability": "nonpayable",
      "type": "function"
    },
    {
      "constant": true,
      "inputs": [
        {
          "name": "sender",
          "type": "address"
        },
        {
          "name": "seed",
          "type": "uint256"
        }
      ],
      "name": "calculateSubmissionIndex",
      "outputs": [
        {
          "name": "",
          "type": "uint256[2]"
        }
      ],
      "payable": false,
      "stateMutability": "view",
      "type": "function"
    },
    {
      "constant": true,
      "inputs": [
        {
          "name": "sender",
          "type": "address"
        }
      ],
      "name": "getClaimSeed",
      "outputs": [
        {
          "name": "",
          "type": "uint256"
        }
      ],
      "payable": false,
      "stateMutability": "view",
      "type": "function"
    },
    {
      "constant": false,
      "inputs": [
        {
          "name": "rootHash",
          "type": "uint256"
        },
        {
          "name": "rootMin",
          "type": "uint256"
        },
        {
          "name": "rootMax",
          "type": "uint256"
        },
        {
          "name": "leafHash",
          "type": "uint256"
        },
        {
          "name": "leafCounter",
          "type": "uint256"
        },
        {
          "name": "branchIndex",
          "type": "uint256"
        },
        {
          "name": "countersBranch",
          "type": "uint256[]"
        },
        {
          "name": "hashesBranch",
          "type": "uint256[]"
        }
      ],
      "name": "verifyAgtDebugForTesting",
      "outputs": [
        {
          "name": "",
          "type": "bool"
        }
      ],
      "payable": false,
      "stateMutability": "nonpayable",
      "type": "function"
    },
    {
      "constant": true,
      "inputs": [],
      "name": "ethashContract",
      "outputs": [
        {
          "name": "",
          "type": "address"
        }
      ],
      "payable": false,
      "stateMutability": "view",
      "type": "function"
    },
    {
      "constant": false,
      "inputs": [],
      "name": "disableBlackListForever",
      "outputs": [],
      "payable": false,
      "stateMutability": "nonpayable",
      "type": "function"
    },
    {
      "constant": false,
      "inputs": [
        {
          "name": "sender",
          "type": "address"
        }
      ],
      "name": "getShareIndexDebugForTestRPC",
      "outputs": [],
      "payable": false,
      "stateMutability": "nonpayable",
      "type": "function"
    },
    {
      "constant": true,
      "inputs": [
        {
          "name": "sender",
          "type": "address"
        },
        {
          "name": "seed",
          "type": "uint256"
        },
        {
          "name": "submissionNumber",
          "type": "uint256"
        },
        {
          "name": "shareIndex",
          "type": "uint256"
        }
      ],
      "name": "verifySubmissionIndex",
      "outputs": [
        {
          "name": "",
          "type": "bool"
        }
      ],
      "payable": false,
      "stateMutability": "view",
      "type": "function"
    },
    {
      "constant": true,
      "inputs": [],
      "name": "getPoolBalance",
      "outputs": [
        {
          "name": "",
          "type": "uint256"
        }
      ],
      "payable": false,
      "stateMutability": "view",
      "type": "function"
    },
    {
      "constant": false,
      "inputs": [
        {
          "name": "miner",
          "type": "address"
        },
        {
          "name": "add",
          "type": "bool"
        }
      ],
      "name": "updateWhiteList",
      "outputs": [],
      "payable": false,
      "stateMutability": "nonpayable",
      "type": "function"
    },
    {
      "constant": true,
      "inputs": [],
      "name": "blackListEnabled",
      "outputs": [
        {
          "name": "",
          "type": "bool"
        }
      ],
      "payable": false,
      "stateMutability": "view",
      "type": "function"
    },
    {
      "constant": false,
      "inputs": [
        {
          "name": "rlpHeader",
          "type": "bytes"
        },
        {
          "name": "nonce",
          "type": "uint256"
        },
        {
          "name": "submissionIndex",
          "type": "uint256"
        },
        {
          "name": "shareIndex",
          "type": "uint256"
        },
        {
          "name": "dataSetLookup",
          "type": "uint256[]"
        },
        {
          "name": "witnessForLookup",
          "type": "uint256[]"
        },
        {
          "name": "augCountersBranch",
          "type": "uint256[]"
        },
        {
          "name": "augHashesBranch",
          "type": "uint256[]"
        }
      ],
      "name": "verifyClaim",
      "outputs": [],
      "payable": false,
      "stateMutability": "nonpayable",
      "type": "function"
    },
    {
      "constant": true,
      "inputs": [
        {
          "name": "sender",
          "type": "address"
        }
      ],
      "name": "isRegistered",
      "outputs": [
        {
          "name": "",
          "type": "bool"
        }
      ],
      "payable": false,
      "stateMutability": "view",
      "type": "function"
    },
    {
      "constant": false,
      "inputs": [
        {
          "name": "miner",
          "type": "address"
        }
      ],
      "name": "storeClaimSeed",
      "outputs": [],
      "payable": false,
      "stateMutability": "nonpayable",
      "type": "function"
    },
    {
      "constant": false,
      "inputs": [
        {
          "name": "numShares",
          "type": "uint256"
        },
        {
          "name": "difficulty",
          "type": "uint256"
        },
        {
          "name": "min",
          "type": "uint256"
        },
        {
          "name": "max",
          "type": "uint256"
        },
        {
          "name": "augRoot",
          "type": "uint256"
        },
        {
          "name": "lastClaimBeforeVerification",
          "type": "bool"
        }
      ],
      "name": "submitClaim",
      "outputs": [],
      "payable": false,
      "stateMutability": "nonpayable",
      "type": "function"
    },
    {
      "constant": true,
      "inputs": [
        {
          "name": "sender",
          "type": "address"
        }
      ],
      "name": "getMinerId",
      "outputs": [
        {
          "name": "",
          "type": "bytes32"
        }
      ],
      "payable": false,
      "stateMutability": "view",
      "type": "function"
    },
    {
      "constant": true,
      "inputs": [],
      "name": "whiteListEnabled",
      "outputs": [
        {
          "name": "",
          "type": "bool"
        }
      ],
      "payable": false,
      "stateMutability": "view",
      "type": "function"
    },
    {
      "constant": false,
      "inputs": [],
      "name": "disableWhiteListForever",
      "outputs": [],
      "payable": false,
      "stateMutability": "nonpayable",
      "type": "function"
    },
    {
      "constant": false,
      "inputs": [],
      "name": "declareNewerVersion",
      "outputs": [],
      "payable": false,
      "stateMutability": "nonpayable",
      "type": "function"
    },
    {
      "constant": true,
      "inputs": [
        {
          "name": "",
          "type": "bytes32"
        }
      ],
      "name": "existingIds",
      "outputs": [
        {
          "name": "",
          "type": "bool"
        }
      ],
      "payable": false,
      "stateMutability": "view",
      "type": "function"
    },
    {
      "constant": true,
      "inputs": [],
      "name": "withdrawalAddress",
      "outputs": [
        {
          "name": "",
          "type": "address"
        }
      ],
      "payable": false,
      "stateMutability": "view",
      "type": "function"
    },
    {
      "constant": false,
      "inputs": [
        {
          "name": "miner",
          "type": "address"
        },
        {
          "name": "add",
          "type": "bool"
        }
      ],
      "name": "updateBlackList",
      "outputs": [],
      "payable": false,
      "stateMutability": "nonpayable",
      "type": "function"
    },
    {
      "constant": true,
      "inputs": [
        {
          "name": "id",
          "type": "uint256"
        },
        {
          "name": "numChars",
          "type": "uint256"
        }
      ],
      "name": "to62Encoding",
      "outputs": [
        {
          "name": "",
          "type": "bytes32"
        }
      ],
      "payable": false,
      "stateMutability": "view",
      "type": "function"
    },
    {
      "inputs": [
        {
          "name": "_owners",
          "type": "address[]"
        },
        {
          "name": "_ethashContract",
          "type": "address"
        },
        {
          "name": "_withdrawalAddress",
          "type": "address"
        },
        {
          "name": "_whiteListEnabled",
          "type": "bool"
        },
        {
          "name": "_blackListEnabled",
          "type": "bool"
        }
      ],
      "payable": true,
      "stateMutability": "payable",
      "type": "constructor"
    },
    {
      "payable": true,
      "stateMutability": "payable",
      "type": "fallback"
    },
    {
      "anonymous": false,
      "inputs": [
        {
          "indexed": true,
          "name": "sender",
          "type": "address"
        },
        {
          "indexed": false,
          "name": "error",
          "type": "uint256"
        },
        {
          "indexed": false,
          "name": "errorInfo",
          "type": "uint256"
        }
      ],
      "name": "Withdraw",
      "type": "event"
    },
    {
      "anonymous": false,
      "inputs": [
        {
          "indexed": true,
          "name": "sender",
          "type": "address"
        },
        {
          "indexed": false,
          "name": "error",
          "type": "uint256"
        },
        {
          "indexed": false,
          "name": "errorInfo",
          "type": "uint256"
        }
      ],
      "name": "Register",
      "type": "event"
    },
    {
      "anonymous": false,
      "inputs": [
        {
          "indexed": true,
          "name": "miner",
          "type": "address"
        },
        {
          "indexed": false,
          "name": "error",
          "type": "uint256"
        },
        {
          "indexed": false,
          "name": "errorInfo",
          "type": "uint256"
        },
        {
          "indexed": false,
          "name": "add",
          "type": "bool"
        }
      ],
      "name": "UpdateWhiteList",
      "type": "event"
    },
    {
      "anonymous": false,
      "inputs": [
        {
          "indexed": true,
          "name": "miner",
          "type": "address"
        },
        {
          "indexed": false,
          "name": "error",
          "type": "uint256"
        },
        {
          "indexed": false,
          "name": "errorInfo",
          "type": "uint256"
        },
        {
          "indexed": false,
          "name": "add",
          "type": "bool"
        }
      ],
      "name": "UpdateBlackList",
      "type": "event"
    },
    {
      "anonymous": false,
      "inputs": [
        {
          "indexed": true,
          "name": "sender",
          "type": "address"
        },
        {
          "indexed": false,
          "name": "error",
          "type": "uint256"
        },
        {
          "indexed": false,
          "name": "errorInfo",
          "type": "uint256"
        }
      ],
      "name": "DisableBlackListForever",
      "type": "event"
    },
    {
      "anonymous": false,
      "inputs": [
        {
          "indexed": true,
          "name": "sender",
          "type": "address"
        },
        {
          "indexed": false,
          "name": "error",
          "type": "uint256"
        },
        {
          "indexed": false,
          "name": "errorInfo",
          "type": "uint256"
        }
      ],
      "name": "DisableWhiteListForever",
      "type": "event"
    },
    {
      "anonymous": false,
      "inputs": [
        {
          "indexed": true,
          "name": "sender",
          "type": "address"
        },
        {
          "indexed": false,
          "name": "error",
          "type": "uint256"
        },
        {
          "indexed": false,
          "name": "errorInfo",
          "type": "uint256"
        }
      ],
      "name": "VerifyExtraData",
      "type": "event"
    },
    {
      "anonymous": false,
      "inputs": [
        {
          "indexed": true,
          "name": "sender",
          "type": "address"
        },
        {
          "indexed": false,
          "name": "error",
          "type": "uint256"
        },
        {
          "indexed": false,
          "name": "errorInfo",
          "type": "uint256"
        }
      ],
      "name": "VerifyClaim",
      "type": "event"
    },
    {
      "anonymous": false,
      "inputs": [
        {
          "indexed": false,
          "name": "sender",
          "type": "address"
        },
        {
          "indexed": false,
          "name": "amountInWei",
          "type": "uint256"
        }
      ],
      "name": "IncomingFunds",
      "type": "event"
    },
    {
      "anonymous": false,
      "inputs": [
        {
          "indexed": true,
          "name": "sender",
          "type": "address"
        },
        {
          "indexed": false,
          "name": "error",
          "type": "uint256"
        },
        {
          "indexed": false,
          "name": "errorInfo",
          "type": "uint256"
        }
      ],
      "name": "SetUnlceRateAndFees",
      "type": "event"
    },
    {
      "anonymous": false,
      "inputs": [
        {
          "indexed": true,
          "name": "sender",
          "type": "address"
        },
        {
          "indexed": false,
          "name": "paymentAddress",
          "type": "address"
        },
        {
          "indexed": false,
          "name": "valueInWei",
          "type": "uint256"
        }
      ],
      "name": "DoPayment",
      "type": "event"
    },
    {
      "anonymous": false,
      "inputs": [
        {
          "indexed": false,
          "name": "index",
          "type": "uint256"
        }
      ],
      "name": "GetShareIndexDebugForTestRPCSubmissionIndex",
      "type": "event"
    },
    {
      "anonymous": false,
      "inputs": [
        {
          "indexed": false,
          "name": "index",
          "type": "uint256"
        }
      ],
      "name": "GetShareIndexDebugForTestRPCShareIndex",
      "type": "event"
    },
    {
      "anonymous": false,
      "inputs": [
        {
          "indexed": true,
          "name": "sender",
          "type": "address"
        },
        {
          "indexed": false,
          "name": "error",
          "type": "uint256"
        },
        {
          "indexed": false,
          "name": "errorInfo",
          "type": "uint256"
        }
      ],
      "name": "SubmitClaim",
      "type": "event"
    },
    {
      "anonymous": false,
      "inputs": [
        {
          "indexed": true,
          "name": "sender",
          "type": "address"
        },
        {
          "indexed": false,
          "name": "error",
          "type": "uint256"
        },
        {
          "indexed": false,
          "name": "errorInfo",
          "type": "uint256"
        }
      ],
      "name": "StoreClaimSeed",
      "type": "event"
    },
    {
      "anonymous": false,
      "inputs": [
        {
          "indexed": true,
          "name": "sender",
          "type": "address"
        },
        {
          "indexed": false,
          "name": "error",
          "type": "uint256"
        },
        {
          "indexed": false,
          "name": "errorInfo",
          "type": "uint256"
        }
      ],
      "name": "DebugResetSubmissions",
      "type": "event"
    },
    {
      "anonymous": false,
      "inputs": [
        {
          "indexed": false,
          "name": "error",
          "type": "uint256"
        },
        {
          "indexed": false,
          "name": "index",
          "type": "uint256"
        }
      ],
      "name": "VerifyAgt",
      "type": "event"
    }
  ],
  "bytecode": "0x60606040526040805190810160405280600581526020017f302e312e3100000000000000000000000000000000000000000000000000000081525060029080519060200190620000519291906200020d565b506000600660006101000a81548160ff0219169083151502179055506101f4600c556000600d5560405162005f8638038062005f868339810160405280805182019190602001805190602001909190805190602001909190805190602001909190805190602001909190505060008090505b85518110156200014b576001600560008884815181101515620000e257fe5b9060200190602002015173ffffffffffffffffffffffffffffffffffffffff1673ffffffffffffffffffffffffffffffffffffffff16815260200190815260200160002060006101000a81548160ff0219169083151502179055508080600101915050620000c3565b84600360006101000a81548173ffffffffffffffffffffffffffffffffffffffff021916908373ffffffffffffffffffffffffffffffffffffffff16021790555083600460006101000a81548173ffffffffffffffffffffffffffffffffffffffff021916908373ffffffffffffffffffffffffffffffffffffffff16021790555082600960006101000a81548160ff02191690831515021790555081600960016101000a81548160ff021916908315150217905550505050505050620002bc565b828054600181600116156101000203166002900490600052602060002090601f016020900481019282601f106200025057805160ff191683800117855562000281565b8280016001018555821562000281579182015b828111156200028057825182559160200191906001019062000263565b5b50905062000290919062000294565b5090565b620002b991905b80821115620002b55760008160009055506001016200029b565b5090565b90565b615cba80620002cc6000396000f3006060604052600436106101a1576000357c0100000000000000000000000000000000000000000000000000000000900463ffffffff168063022914a71461021d5780630289e9661461026e5780631bc412841461029b57806321aa4548146102c45780632e1a7d4d14610311578063320d46d41461033457806333580959146103855780634420e486146103ae57806346b3f696146103e757806354fd4d50146104135780635eadd607146104a15780635ed1057d146104b65780637087ed2c146105345780637ed996a3146105815780637f949ac014610669578063838a48d6146106be57806384c65296146106d35780639e133be41461070c578063abd70aa214610778578063ac1d0609146107a1578063ad37c41b146107e5578063c2209acb14610812578063c3c5a5471461098a578063c7876940146109db578063cedb217a14610a14578063e2dea71514610a66578063e2e616bb14610abb578063e390e26314610ae8578063e3d8699814610afd578063ee38530414610b12578063f2bcd02214610b51578063fc2eb88914610ba6578063ff5d2c3914610bea575b6000341115156101b057600080fd5b7f956d4d6b7078569e4433967114fa7538f233475457dc35578fe282cf58f9e01f3334604051808373ffffffffffffffffffffffffffffffffffffffff1673ffffffffffffffffffffffffffffffffffffffff1681526020018281526020019250505060405180910390a1005b341561022857600080fd5b610254600480803573ffffffffffffffffffffffffffffffffffffffff16906020019091905050610c32565b604051808215151515815260200191505060405180910390f35b341561027957600080fd5b610281610c52565b604051808215151515815260200191505060405180910390f35b34156102a657600080fd5b6102ae610c65565b6040518082815260200191505060405180910390f35b34156102cf57600080fd5b6102fb600480803573ffffffffffffffffffffffffffffffffffffffff16906020019091905050610c6b565b6040518082815260200191505060405180910390f35b341561031c57600080fd5b6103326004808035906020019091905050610cd4565b005b341561033f57600080fd5b61036b600480803573ffffffffffffffffffffffffffffffffffffffff16906020019091905050610e43565b604051808215151515815260200191505060405180910390f35b341561039057600080fd5b610398610f99565b6040518082815260200191505060405180910390f35b34156103b957600080fd5b6103e5600480803573ffffffffffffffffffffffffffffffffffffffff16906020019091905050610f9f565b005b34156103f257600080fd5b6104116004808035906020019091908035906020019091905050611495565b005b341561041e57600080fd5b6104266115b2565b6040518080602001828103825283818151815260200191508051906020019080838360005b8381101561046657808201518184015260208101905061044b565b50505050905090810190601f1680156104935780820380516001836020036101000a031916815260200191505b509250505060405180910390f35b34156104ac57600080fd5b6104b4611650565b005b34156104c157600080fd5b6104f6600480803573ffffffffffffffffffffffffffffffffffffffff169060200190919080359060200190919050506116b2565b6040518082600260200280838360005b83811015610521578082015181840152602081019050610506565b5050505090500191505060405180910390f35b341561053f57600080fd5b61056b600480803573ffffffffffffffffffffffffffffffffffffffff16906020019091905050611abf565b6040518082815260200191505060405180910390f35b341561058c57600080fd5b61064f60048080359060200190919080359060200190919080359060200190919080359060200190919080359060200190919080359060200190919080359060200190820180359060200190808060200260200160405190810160405280939291908181526020018383602002808284378201915050505050509190803590602001908201803590602001908080602002602001604051908101604052809392919081815260200183836020028082843782019150505050505091905050611cfc565b604051808215151515815260200191505060405180910390f35b341561067457600080fd5b61067c611d53565b604051808273ffffffffffffffffffffffffffffffffffffffff1673ffffffffffffffffffffffffffffffffffffffff16815260200191505060405180910390f35b34156106c957600080fd5b6106d1611d79565b005b34156106de57600080fd5b61070a600480803573ffffffffffffffffffffffffffffffffffffffff16906020019091905050611ea1565b005b341561071757600080fd5b61075e600480803573ffffffffffffffffffffffffffffffffffffffff16906020019091908035906020019091908035906020019091908035906020019091905050611f5b565b604051808215151515815260200191505060405180910390f35b341561078357600080fd5b61078b612361565b6040518082815260200191505060405180910390f35b34156107ac57600080fd5b6107e3600480803573ffffffffffffffffffffffffffffffffffffffff169060200190919080351515906020019091905050612380565b005b34156107f057600080fd5b6107f86125b8565b604051808215151515815260200191505060405180910390f35b341561081d57600080fd5b610988600480803590602001908201803590602001908080601f01602080910402602001604051908101604052809392919081815260200183838082843782019150505050505091908035906020019091908035906020019091908035906020019091908035906020019082018035906020019080806020026020016040519081016040528093929190818152602001838360200280828437820191505050505050919080359060200190820180359060200190808060200260200160405190810160405280939291908181526020018383602002808284378201915050505050509190803590602001908201803590602001908080602002602001604051908101604052809392919081815260200183836020028082843782019150505050505091908035906020019082018035906020019080806020026020016040519081016040528093929190818152602001838360200280828437820191505050505050919050506125cb565b005b341561099557600080fd5b6109c1600480803573ffffffffffffffffffffffffffffffffffffffff16906020019091905050612eea565b604051808215151515815260200191505060405180910390f35b34156109e657600080fd5b610a12600480803573ffffffffffffffffffffffffffffffffffffffff16906020019091905050612f85565b005b3415610a1f57600080fd5b610a6460048080359060200190919080359060200190919080359060200190919080359060200190919080359060200190919080351515906020019091905050613420565b005b3415610a7157600080fd5b610a9d600480803573ffffffffffffffffffffffffffffffffffffffff16906020019091905050613e64565b60405180826000191660001916815260200191505060405180910390f35b3415610ac657600080fd5b610ace613eb0565b604051808215151515815260200191505060405180910390f35b3415610af357600080fd5b610afb613ec3565b005b3415610b0857600080fd5b610b10613feb565b005b3415610b1d57600080fd5b610b37600480803560001916906020019091905050614060565b604051808215151515815260200191505060405180910390f35b3415610b5c57600080fd5b610b64614080565b604051808273ffffffffffffffffffffffffffffffffffffffff1673ffffffffffffffffffffffffffffffffffffffff16815260200191505060405180910390f35b3415610bb157600080fd5b610be8600480803573ffffffffffffffffffffffffffffffffffffffff1690602001909190803515159060200190919050506140a6565b005b3415610bf557600080fd5b610c1460048080359060200190919080359060200190919050506142dd565b60405180826000191660001916815260200191505060405180910390f35b60056020528060005260406000206000915054906101000a900460ff1681565b600660009054906101000a900460ff1681565b600c5481565b60008060008373ffffffffffffffffffffffffffffffffffffffff1673ffffffffffffffffffffffffffffffffffffffff16815260200190815260200160002060000160009054906101000a900467ffffffffffffffff1667ffffffffffffffff169050919050565b600560003373ffffffffffffffffffffffffffffffffffffffff1673ffffffffffffffffffffffffffffffffffffffff16815260200190815260200160002060009054906101000a900460ff161515610d86573373ffffffffffffffffffffffffffffffffffffffff167ff279e6a1f5e320cca91135676d9cb6e44ca8a08c0b88342bcdb1144f6511b568638000000083604051808381526020018281526020019250505060405180910390a2610e40565b600460009054906101000a900473ffffffffffffffffffffffffffffffffffffffff1673ffffffffffffffffffffffffffffffffffffffff166108fc829081150290604051600060405180830381858888f193505050501515610de857600080fd5b3373ffffffffffffffffffffffffffffffffffffffff167ff279e6a1f5e320cca91135676d9cb6e44ca8a08c0b88342bcdb1144f6511b568600083604051808381526020018281526020019250505060405180910390a25b50565b60008060006802d227003d8d2af8008473ffffffffffffffffffffffffffffffffffffffff16811515610e7257fe5b069150610e8082600b6142dd565b9050600960009054906101000a900460ff1615610ef457600a60008573ffffffffffffffffffffffffffffffffffffffff1673ffffffffffffffffffffffffffffffffffffffff16815260200190815260200160002060009054906101000a900460ff161515610ef35760009250610f92565b5b600960019054906101000a900460ff1615610f6557600b60008573ffffffffffffffffffffffffffffffffffffffff1673ffffffffffffffffffffffffffffffffffffffff16815260200190815260200160002060009054906101000a900460ff1615610f645760009250610f92565b5b60086000826000191660001916815260200190815260200160002060009054906101000a900460ff161592505b5050919050565b600d5481565b60008060003392506802d227003d8d2af8008373ffffffffffffffffffffffffffffffffffffffff16811515610fd157fe5b069150610fdf82600b6142dd565b905060086000600760008673ffffffffffffffffffffffffffffffffffffffff1673ffffffffffffffffffffffffffffffffffffffff168152602001908152602001600020600001546000191660001916815260200190815260200160002060009054906101000a900460ff16156110b4573373ffffffffffffffffffffffffffffffffffffffff167f1d759fb22634fe2d322d688a4b46aaf185dd0a3db78ccf01a9218f00ac3df03f63800000008360019004604051808381526020018281526020019250505060405180910390a261148f565b600073ffffffffffffffffffffffffffffffffffffffff168473ffffffffffffffffffffffffffffffffffffffff16141561115e573373ffffffffffffffffffffffffffffffffffffffff167f1d759fb22634fe2d322d688a4b46aaf185dd0a3db78ccf01a9218f00ac3df03f63800000018673ffffffffffffffffffffffffffffffffffffffff16604051808381526020018281526020019250505060405180910390a261148f565b600960009054906101000a900460ff161561122a57600a60003373ffffffffffffffffffffffffffffffffffffffff1673ffffffffffffffffffffffffffffffffffffffff16815260200190815260200160002060009054906101000a900460ff161515611229573373ffffffffffffffffffffffffffffffffffffffff167f1d759fb22634fe2d322d688a4b46aaf185dd0a3db78ccf01a9218f00ac3df03f63800000028360019004604051808381526020018281526020019250505060405180910390a261148f565b5b600960019054906101000a900460ff16156112f557600b60003373ffffffffffffffffffffffffffffffffffffffff1673ffffffffffffffffffffffffffffffffffffffff16815260200190815260200160002060009054906101000a900460ff16156112f4573373ffffffffffffffffffffffffffffffffffffffff167f1d759fb22634fe2d322d688a4b46aaf185dd0a3db78ccf01a9218f00ac3df03f63800000038360019004604051808381526020018281526020019250505060405180910390a261148f565b5b83600760008573ffffffffffffffffffffffffffffffffffffffff1673ffffffffffffffffffffffffffffffffffffffff16815260200190815260200160002060010160006101000a81548173ffffffffffffffffffffffffffffffffffffffff021916908373ffffffffffffffffffffffffffffffffffffffff16021790555080600760008573ffffffffffffffffffffffffffffffffffffffff1673ffffffffffffffffffffffffffffffffffffffff1681526020019081526020016000206000018160001916905550600160086000600760008773ffffffffffffffffffffffffffffffffffffffff1673ffffffffffffffffffffffffffffffffffffffff168152602001908152602001600020600001546000191660001916815260200190815260200160002060006101000a81548160ff0219169083151502179055503373ffffffffffffffffffffffffffffffffffffffff167f1d759fb22634fe2d322d688a4b46aaf185dd0a3db78ccf01a9218f00ac3df03f600080604051808381526020018281526020019250505060405180910390a25b50505050565b600560003373ffffffffffffffffffffffffffffffffffffffff1673ffffffffffffffffffffffffffffffffffffffff16815260200190815260200160002060009054906101000a900460ff161515611548573373ffffffffffffffffffffffffffffffffffffffff167f212ff53abc1c86b982eeb544d77036ecfc9e7c368460eeba75aa49c808a1bfa963800000006000604051808381526020018281526020019250505060405180910390a26115ae565b81600c8190555080600d819055503373ffffffffffffffffffffffffffffffffffffffff167f212ff53abc1c86b982eeb544d77036ecfc9e7c368460eeba75aa49c808a1bfa9600080604051808381526020018281526020019250505060405180910390a25b5050565b60028054600181600116156101000203166002900480601f0160208091040260200160405190810160405280929190818152602001828054600181600116156101000203166002900480156116485780601f1061161d57610100808354040283529160200191611648565b820191906000526020600020905b81548152906001019060200180831161162b57829003601f168201915b505050505081565b61165933614387565b3373ffffffffffffffffffffffffffffffffffffffff167fb4392733a0c6dd35350239f2e9eb97a9a9e574fc090445fb267bea4114f9d706600080604051808381526020018281526020019250505060405180910390a2565b6116ba615a38565b60008060008060006116ca615a5f565b6000806fffffffffffffffffffffffffffffffff8a1697507001000000000000000000000000000000008a8115156116fe57fe5b0496506000808c73ffffffffffffffffffffffffffffffffffffffff1673ffffffffffffffffffffffffffffffffffffffff16815260200190815260200160002060000160109054906101000a90046fffffffffffffffffffffffffffffffff166fffffffffffffffffffffffffffffffff1695506000808c73ffffffffffffffffffffffffffffffffffffffff1673ffffffffffffffffffffffffffffffffffffffff16815260200190815260200160002060000160009054906101000a900467ffffffffffffffff1667ffffffffffffffff16945085888115156117e057fe5b069350600091505b84821015611a4157600160008c73ffffffffffffffffffffffffffffffffffffffff1673ffffffffffffffffffffffffffffffffffffffff168152602001908152602001600020600083815260200190815260200160002060c060405190810160405290816000820160009054906101000a90046fffffffffffffffffffffffffffffffff166fffffffffffffffffffffffffffffffff166fffffffffffffffffffffffffffffffff1681526020016000820160109054906101000a90046fffffffffffffffffffffffffffffffff166fffffffffffffffffffffffffffffffff166fffffffffffffffffffffffffffffffff1681526020016001820160009054906101000a90046fffffffffffffffffffffffffffffffff166fffffffffffffffffffffffffffffffff166fffffffffffffffffffffffffffffffff1681526020016001820160109054906101000a90046fffffffffffffffffffffffffffffffff166fffffffffffffffffffffffffffffffff166fffffffffffffffffffffffffffffffff1681526020016002820160009054906101000a90046fffffffffffffffffffffffffffffffff166fffffffffffffffffffffffffffffffff166fffffffffffffffffffffffffffffffff1681526020016002820160109054906101000a90046fffffffffffffffffffffffffffffffff166fffffffffffffffffffffffffffffffff166fffffffffffffffffffffffffffffffff168152505092508383602001518460400151016fffffffffffffffffffffffffffffffff16101515611a3457611a41565b81806001019250506117e8565b84821415611a7557604080519081016040528067ffffffffffffffff815260200167ffffffffffffffff8152509850611ab1565b82600001516fffffffffffffffffffffffffffffffff1687811515611a9657fe5b06905060408051908101604052808381526020018281525098505b505050505050505092915050565b6000611ac9615b02565b60008060008573ffffffffffffffffffffffffffffffffffffffff1673ffffffffffffffffffffffffffffffffffffffff16815260200190815260200160002060e060405190810160405290816000820160009054906101000a900467ffffffffffffffff1667ffffffffffffffff1667ffffffffffffffff1681526020016000820160089054906101000a900463ffffffff1663ffffffff1663ffffffff16815260200160008201600c9054906101000a900463ffffffff1663ffffffff1663ffffffff1681526020016000820160109054906101000a90046fffffffffffffffffffffffffffffffff166fffffffffffffffffffffffffffffffff166fffffffffffffffffffffffffffffffff1681526020016001820160009054906101000a90046fffffffffffffffffffffffffffffffff166fffffffffffffffffffffffffffffffff166fffffffffffffffffffffffffffffffff1681526020016001820160109054906101000a90046fffffffffffffffffffffffffffffffff166fffffffffffffffffffffffffffffffff166fffffffffffffffffffffffffffffffff16815260200160028201548152505091506000826020015163ffffffff161415611c995760009250611cf5565b60008260c00151141515611cb3578160c001519250611cf5565b816040015163ffffffff16905060c88101431115611cd45760009250611cf5565b600f810143111515611ce95760009250611cf5565b600a8101406001900492505b5050919050565b6000611d06615b8c565b8981600001818152505088816020018181525050878160400181815250508681606001818152505085816080018181525050611d4481868686614741565b91505098975050505050505050565b600360009054906101000a900473ffffffffffffffffffffffffffffffffffffffff1681565b600560003373ffffffffffffffffffffffffffffffffffffffff1673ffffffffffffffffffffffffffffffffffffffff16815260200190815260200160002060009054906101000a900460ff161515611e2c573373ffffffffffffffffffffffffffffffffffffffff167ff480ca51e917598d93b5e1f0d9ffaca924650e0be8a44687903f25fc9653b24763800000006000604051808381526020018281526020019250505060405180910390a2611e9f565b6000600960016101000a81548160ff0219169083151502179055503373ffffffffffffffffffffffffffffffffffffffff167ff480ca51e917598d93b5e1f0d9ffaca924650e0be8a44687903f25fc9653b247600080604051808381526020018281526020019250505060405180910390a25b565b6000611eab615a38565b611eb483611abf565b9150611ec083836116b2565b90507f3ba53417e57e443ddb98675e360751dde5188b35238f74080d8dd0ae715b810a816000600281101515611ef257fe5b60200201516040518082815260200191505060405180910390a17fc02e7f30f38954ffaa58472135d46a24d0edd3ed7b9badb4940f485654695724816001600281101515611f3c57fe5b60200201516040518082815260200191505060405180910390a1505050565b6000806000611f68615a5f565b60008060008060008b1415611f805760009750612352565b6000808d73ffffffffffffffffffffffffffffffffffffffff1673ffffffffffffffffffffffffffffffffffffffff16815260200190815260200160002060000160109054906101000a90046fffffffffffffffffffffffffffffffff166fffffffffffffffffffffffffffffffff1696506000808d73ffffffffffffffffffffffffffffffffffffffff1673ffffffffffffffffffffffffffffffffffffffff16815260200190815260200160002060000160009054906101000a900467ffffffffffffffff1667ffffffffffffffff169550600160008d73ffffffffffffffffffffffffffffffffffffffff1673ffffffffffffffffffffffffffffffffffffffff16815260200190815260200160002060008b815260200190815260200160002060c060405190810160405290816000820160009054906101000a90046fffffffffffffffffffffffffffffffff166fffffffffffffffffffffffffffffffff166fffffffffffffffffffffffffffffffff1681526020016000820160109054906101000a90046fffffffffffffffffffffffffffffffff166fffffffffffffffffffffffffffffffff166fffffffffffffffffffffffffffffffff1681526020016001820160009054906101000a90046fffffffffffffffffffffffffffffffff166fffffffffffffffffffffffffffffffff166fffffffffffffffffffffffffffffffff1681526020016001820160109054906101000a90046fffffffffffffffffffffffffffffffff166fffffffffffffffffffffffffffffffff166fffffffffffffffffffffffffffffffff1681526020016002820160009054906101000a90046fffffffffffffffffffffffffffffffff166fffffffffffffffffffffffffffffffff166fffffffffffffffffffffffffffffffff1681526020016002820160109054906101000a90046fffffffffffffffffffffffffffffffff166fffffffffffffffffffffffffffffffff166fffffffffffffffffffffffffffffffff16815250509450858a1015156122805760009750612352565b6fffffffffffffffffffffffffffffffff8b1693507001000000000000000000000000000000008b8115156122b157fe5b04925086848115156122bf57fe5b0691508185604001516fffffffffffffffffffffffffffffffff161015156122ea5760009750612352565b8185602001518660400151016fffffffffffffffffffffffffffffffff1610156123175760009750612352565b84600001516fffffffffffffffffffffffffffffffff168381151561233857fe5b069050888114151561234d5760009750612352565b600197505b50505050505050949350505050565b60003073ffffffffffffffffffffffffffffffffffffffff1631905090565b600560003373ffffffffffffffffffffffffffffffffffffffff1673ffffffffffffffffffffffffffffffffffffffff16815260200190815260200160002060009054906101000a900460ff16151561243f573373ffffffffffffffffffffffffffffffffffffffff167f6b75ddb2bf3491dca8d6231dc4fd31a97485c8ce82025701005eabdac7efa68d63800000006000846040518084815260200183815260200182151515158152602001935050505060405180910390a26125b4565b600960009054906101000a900460ff1615156124c1573373ffffffffffffffffffffffffffffffffffffffff167f6b75ddb2bf3491dca8d6231dc4fd31a97485c8ce82025701005eabdac7efa68d63800000016000846040518084815260200183815260200182151515158152602001935050505060405180910390a26125b4565b80600a60008473ffffffffffffffffffffffffffffffffffffffff1673ffffffffffffffffffffffffffffffffffffffff16815260200190815260200160002060006101000a81548160ff0219169083151502179055508015801561252b575061252a82612eea565b5b1561253a5761253982614b7e565b5b3373ffffffffffffffffffffffffffffffffffffffff167f6b75ddb2bf3491dca8d6231dc4fd31a97485c8ce82025701005eabdac7efa68d60008473ffffffffffffffffffffffffffffffffffffffff16846040518084815260200183815260200182151515158152602001935050505060405180910390a25b5050565b600960019054906101000a900460ff1681565b6125d3615bbc565b6125db615c06565b6000806125e6615b8c565b60006125f133612eea565b1515612657573373ffffffffffffffffffffffffffffffffffffffff167f096caf97202169a068288f02e51ff9fcc85f98e1477f6ad9acbf6ebf25dbcd00638400000c6000604051808381526020018281526020019250505060405180910390a2612eda565b61266b338d8d61266633611abf565b614c79565b95508560e0015115156126d8573373ffffffffffffffffffffffffffffffffffffffff167f096caf97202169a068288f02e51ff9fcc85f98e1477f6ad9acbf6ebf25dbcd0063840000036000604051808381526020018281526020019250505060405180910390a2612eda565b6126e18e61516b565b94506127388560800151600760003373ffffffffffffffffffffffffffffffffffffffff1673ffffffffffffffffffffffffffffffffffffffff1681526020019081526020016000206000015488602001516152a3565b15156127a5573373ffffffffffffffffffffffffffffffffffffffff167f096caf97202169a068288f02e51ff9fcc85f98e1477f6ad9acbf6ebf25dbcd006384000004876080015160019004604051808381526020018281526020019250505060405180910390a2612eda565b3073ffffffffffffffffffffffffffffffffffffffff16856020015114151561282b573373ffffffffffffffffffffffffffffffffffffffff167f096caf97202169a068288f02e51ff9fcc85f98e1477f6ad9acbf6ebf25dbcd0063840000058760200151604051808381526020018281526020019250505060405180910390a2612eda565b8c6801000000000000000086606001510201935085606001518410156128aa573373ffffffffffffffffffffffffffffffffffffffff167f096caf97202169a068288f02e51ff9fcc85f98e1477f6ad9acbf6ebf25dbcd00638400000786604051808381526020018281526020019250505060405180910390a2612eda565b8560800151841115612915573373ffffffffffffffffffffffffffffffffffffffff167f096caf97202169a068288f02e51ff9fcc85f98e1477f6ad9acbf6ebf25dbcd00638400000886604051808381526020018281526020019250505060405180910390a2612eda565b8d6040518082805190602001908083835b60208310151561294b5780518252602082019150602081019050602083039250612926565b6001836020036101000a03801982511681845116808217855250505050505090500191505060405180910390206001900492508560a001518260000181815250508560600151826020018181525050856080015182604001818152505082826060018181525050838260800181815250506129c8828c8a8a614741565b1515612a2e573373ffffffffffffffffffffffffffffffffffffffff167f096caf97202169a068288f02e51ff9fcc85f98e1477f6ad9acbf6ebf25dbcd0063840000096000604051808381526020018281526020019250505060405180910390a2612eda565b600360009054906101000a900473ffffffffffffffffffffffffffffffffffffffff1673ffffffffffffffffffffffffffffffffffffffff166340ed79f4846001028f7801000000000000000000000000000000000000000000000000028d8d6175308b60400151811515612a9f57fe5b046000604051602001526040518663ffffffff167c01000000000000000000000000000000000000000000000000000000000281526004018086600019166000191681526020018577ffffffffffffffffffffffffffffffffffffffffffffffff191677ffffffffffffffffffffffffffffffffffffffffffffffff191681526020018060200180602001848152602001838103835286818151815260200191508051906020019060200280838360005b83811015612b6b578082015181840152602081019050612b50565b50505050905001838103825285818151815260200191508051906020019060200280838360005b83811015612bad578082015181840152602081019050612b92565b50505050905001975050505050505050602060405180830381600087803b1515612bd657600080fd5b6102c65a03f11515612be757600080fd5b50505060405180519050905085602001517fffffffffffffffffffffffffffffffffffffffffffffffffffffffffffffffff811515612c2257fe5b04811115612d22577ffffffffffffffffffffffffffffffffffffffffffffffffffffffffffffffffe811415612cc2573373ffffffffffffffffffffffffffffffffffffffff167f096caf97202169a068288f02e51ff9fcc85f98e1477f6ad9acbf6ebf25dbcd00638400000a6175308860400151811515612ca057fe5b04604051808381526020018281526020019250505060405180910390a2612d1d565b3373ffffffffffffffffffffffffffffffffffffffff167f096caf97202169a068288f02e51ff9fcc85f98e1477f6ad9acbf6ebf25dbcd00638400000b83604051808381526020018281526020019250505060405180910390a25b612eda565b6000612d2d33611abf565b1415612d93573373ffffffffffffffffffffffffffffffffffffffff167f096caf97202169a068288f02e51ff9fcc85f98e1477f6ad9acbf6ebf25dbcd0063840000016000604051808381526020018281526020019250505060405180910390a2612eda565b8560c001511515612dfe573373ffffffffffffffffffffffffffffffffffffffff167f096caf97202169a068288f02e51ff9fcc85f98e1477f6ad9acbf6ebf25dbcd0063840000026000604051808381526020018281526020019250505060405180910390a2612eda565b612e6e8660400151600760003373ffffffffffffffffffffffffffffffffffffffff1673ffffffffffffffffffffffffffffffffffffffff16815260200190815260200160002060010160009054906101000a900473ffffffffffffffffffffffffffffffffffffffff1661552c565b1515612e7957612eda565b612e8233614387565b3373ffffffffffffffffffffffffffffffffffffffff167f096caf97202169a068288f02e51ff9fcc85f98e1477f6ad9acbf6ebf25dbcd00600080604051808381526020018281526020019250505060405180910390a25b5050505050505050505050505050565b60008073ffffffffffffffffffffffffffffffffffffffff16600760008473ffffffffffffffffffffffffffffffffffffffff1673ffffffffffffffffffffffffffffffffffffffff16815260200190815260200160002060010160009054906101000a900473ffffffffffffffffffffffffffffffffffffffff1673ffffffffffffffffffffffffffffffffffffffff1614159050919050565b6000612f8f615b02565b6000612f9a84611abf565b925060008314151561305e57826000808673ffffffffffffffffffffffffffffffffffffffff1673ffffffffffffffffffffffffffffffffffffffff168152602001908152602001600020600201819055503373ffffffffffffffffffffffffffffffffffffffff167f0909a30e31a36fa185673a7f68383bf8c3f784733c95114c57499b30a2da733e60008673ffffffffffffffffffffffffffffffffffffffff16604051808381526020018281526020019250505060405180910390a261341a565b6000808573ffffffffffffffffffffffffffffffffffffffff1673ffffffffffffffffffffffffffffffffffffffff16815260200190815260200160002060e060405190810160405290816000820160009054906101000a900467ffffffffffffffff1667ffffffffffffffff1667ffffffffffffffff1681526020016000820160089054906101000a900463ffffffff1663ffffffff1663ffffffff16815260200160008201600c9054906101000a900463ffffffff1663ffffffff1663ffffffff1681526020016000820160109054906101000a90046fffffffffffffffffffffffffffffffff166fffffffffffffffffffffffffffffffff166fffffffffffffffffffffffffffffffff1681526020016001820160009054906101000a90046fffffffffffffffffffffffffffffffff166fffffffffffffffffffffffffffffffff166fffffffffffffffffffffffffffffffff1681526020016001820160109054906101000a90046fffffffffffffffffffffffffffffffff166fffffffffffffffffffffffffffffffff166fffffffffffffffffffffffffffffffff1681526020016002820154815250509150816040015163ffffffff1690506000826020015163ffffffff1614156132a5573373ffffffffffffffffffffffffffffffffffffffff167f0909a30e31a36fa185673a7f68383bf8c3f784733c95114c57499b30a2da733e63080000008673ffffffffffffffffffffffffffffffffffffffff16604051808381526020018281526020019250505060405180910390a2613419565b60c88101431115613325573373ffffffffffffffffffffffffffffffffffffffff167f0909a30e31a36fa185673a7f68383bf8c3f784733c95114c57499b30a2da733e63080000018673ffffffffffffffffffffffffffffffffffffffff16604051808381526020018281526020019250505060405180910390a2613418565b600f8101431115156133a6573373ffffffffffffffffffffffffffffffffffffffff167f0909a30e31a36fa185673a7f68383bf8c3f784733c95114c57499b30a2da733e63080000028673ffffffffffffffffffffffffffffffffffffffff16604051808381526020018281526020019250505060405180910390a2613417565b3373ffffffffffffffffffffffffffffffffffffffff167f0909a30e31a36fa185673a7f68383bf8c3f784733c95114c57499b30a2da733e63080000038673ffffffffffffffffffffffffffffffffffffffff16604051808381526020018281526020019250505060405180910390a25b5b5b5b50505050565b613428615b02565b613430615a5f565b6000806000803373ffffffffffffffffffffffffffffffffffffffff1673ffffffffffffffffffffffffffffffffffffffff16815260200190815260200160002060e060405190810160405290816000820160009054906101000a900467ffffffffffffffff1667ffffffffffffffff1667ffffffffffffffff1681526020016000820160089054906101000a900463ffffffff1663ffffffff1663ffffffff16815260200160008201600c9054906101000a900463ffffffff1663ffffffff1663ffffffff1681526020016000820160109054906101000a90046fffffffffffffffffffffffffffffffff166fffffffffffffffffffffffffffffffff166fffffffffffffffffffffffffffffffff1681526020016001820160009054906101000a90046fffffffffffffffffffffffffffffffff166fffffffffffffffffffffffffffffffff166fffffffffffffffffffffffffffffffff1681526020016001820160109054906101000a90046fffffffffffffffffffffffffffffffff166fffffffffffffffffffffffffffffffff166fffffffffffffffffffffffffffffffff1681526020016002820154815250509350878460a001516fffffffffffffffffffffffffffffffff16101515613679573373ffffffffffffffffffffffffffffffffffffffff167f53ab9d877ae22286591454f9a8d58501caa34a07c99eac2c09bc0066c065400d63810000018660a0015160405180838152602001826fffffffffffffffffffffffffffffffff1681526020019250505060405180910390a2613e58565b6000846020015163ffffffff1611156136ec573373ffffffffffffffffffffffffffffffffffffffff167f53ab9d877ae22286591454f9a8d58501caa34a07c99eac2c09bc0066c065400d63810000026000604051808381526020018281526020019250505060405180910390a2613e58565b6000846000015167ffffffffffffffff161115613798578884608001516fffffffffffffffffffffffffffffffff16141515613797573373ffffffffffffffffffffffffffffffffffffffff167f53ab9d877ae22286591454f9a8d58501caa34a07c99eac2c09bc0066c065400d6381000003866080015160405180838152602001826fffffffffffffffffffffffffffffffff1681526020019250505060405180910390a2613e58565b5b8967ffffffffffffffff1683600001906fffffffffffffffffffffffffffffffff1690816fffffffffffffffffffffffffffffffff168152505060004414156137fa5760018460000151016335a4e9000267ffffffffffffffff1691506137fe565b4491505b81674563918244f400008a8c020281151561381557fe5b0483602001906fffffffffffffffffffffffffffffffff1690816fffffffffffffffffffffffffffffffff1681525050836060015183604001906fffffffffffffffffffffffffffffffff1690816fffffffffffffffffffffffffffffffff16815250508783606001906fffffffffffffffffffffffffffffffff1690816fffffffffffffffffffffffffffffffff16815250508683608001906fffffffffffffffffffffffffffffffff1690816fffffffffffffffffffffffffffffffff1681525050858360a001906fffffffffffffffffffffffffffffffff1690816fffffffffffffffffffffffffffffffff168152505082600160003373ffffffffffffffffffffffffffffffffffffffff1673ffffffffffffffffffffffffffffffffffffffff1681526020019081526020016000206000866000015167ffffffffffffffff16815260200190815260200160002060008201518160000160006101000a8154816fffffffffffffffffffffffffffffffff02191690836fffffffffffffffffffffffffffffffff16021790555060208201518160000160106101000a8154816fffffffffffffffffffffffffffffffff02191690836fffffffffffffffffffffffffffffffff16021790555060408201518160010160006101000a8154816fffffffffffffffffffffffffffffffff02191690836fffffffffffffffffffffffffffffffff16021790555060608201518160010160106101000a8154816fffffffffffffffffffffffffffffffff02191690836fffffffffffffffffffffffffffffffff16021790555060808201518160020160006101000a8154816fffffffffffffffffffffffffffffffff02191690836fffffffffffffffffffffffffffffffff16021790555060a08201518160020160106101000a8154816fffffffffffffffffffffffffffffffff02191690836fffffffffffffffffffffffffffffffff16021790555090505083600001805180919060010167ffffffffffffffff1667ffffffffffffffff168152505043846040019063ffffffff16908163ffffffff16815250508884608001906fffffffffffffffffffffffffffffffff1690816fffffffffffffffffffffffffffffffff1681525050868460a001906fffffffffffffffffffffffffffffffff1690816fffffffffffffffffffffffffffffffff168152505084613b8d576000613b90565b60015b846020019063ffffffff16908163ffffffff168152505083606001519050826020015184606001818151019150906fffffffffffffffffffffffffffffffff1690816fffffffffffffffffffffffffffffffff168152505083606001516fffffffffffffffffffffffffffffffff16816fffffffffffffffffffffffffffffffff161115613c78573373ffffffffffffffffffffffffffffffffffffffff167f53ab9d877ae22286591454f9a8d58501caa34a07c99eac2c09bc0066c065400d63810000056000604051808381526020018281526020019250505060405180910390a2613e58565b836000803373ffffffffffffffffffffffffffffffffffffffff1673ffffffffffffffffffffffffffffffffffffffff16815260200190815260200160002060008201518160000160006101000a81548167ffffffffffffffff021916908367ffffffffffffffff16021790555060208201518160000160086101000a81548163ffffffff021916908363ffffffff160217905550604082015181600001600c6101000a81548163ffffffff021916908363ffffffff16021790555060608201518160000160106101000a8154816fffffffffffffffffffffffffffffffff02191690836fffffffffffffffffffffffffffffffff16021790555060808201518160010160006101000a8154816fffffffffffffffffffffffffffffffff02191690836fffffffffffffffffffffffffffffffff16021790555060a08201518160010160106101000a8154816fffffffffffffffffffffffffffffffff02191690836fffffffffffffffffffffffffffffffff16021790555060c082015181600201559050503373ffffffffffffffffffffffffffffffffffffffff167f53ab9d877ae22286591454f9a8d58501caa34a07c99eac2c09bc0066c065400d60008b8d02604051808381526020018281526020019250505060405180910390a25b50505050505050505050565b6000600760008373ffffffffffffffffffffffffffffffffffffffff1673ffffffffffffffffffffffffffffffffffffffff168152602001908152602001600020600001549050919050565b600960009054906101000a900460ff1681565b600560003373ffffffffffffffffffffffffffffffffffffffff1673ffffffffffffffffffffffffffffffffffffffff16815260200190815260200160002060009054906101000a900460ff161515613f76573373ffffffffffffffffffffffffffffffffffffffff167fdc68a38b36901151fe2b8cc3293271f1a845d4942ec98d2edc03516cfd78fe8063800000006000604051808381526020018281526020019250505060405180910390a2613fe9565b6000600960006101000a81548160ff0219169083151502179055503373ffffffffffffffffffffffffffffffffffffffff167fdc68a38b36901151fe2b8cc3293271f1a845d4942ec98d2edc03516cfd78fe80600080604051808381526020018281526020019250505060405180910390a25b565b600560003373ffffffffffffffffffffffffffffffffffffffff1673ffffffffffffffffffffffffffffffffffffffff16815260200190815260200160002060009054906101000a900460ff16151561404357600080fd5b6001600660006101000a81548160ff021916908315150217905550565b60086020528060005260406000206000915054906101000a900460ff1681565b600460009054906101000a900473ffffffffffffffffffffffffffffffffffffffff1681565b600560003373ffffffffffffffffffffffffffffffffffffffff1673ffffffffffffffffffffffffffffffffffffffff16815260200190815260200160002060009054906101000a900460ff161515614165573373ffffffffffffffffffffffffffffffffffffffff167fa7f452ac5dbc9e18ae638319e3cdc0653d06cb2f0624e0172a1e8bfb5c030a0d63800000006000846040518084815260200183815260200182151515158152602001935050505060405180910390a26142d9565b600960019054906101000a900460ff1615156141e7573373ffffffffffffffffffffffffffffffffffffffff167fa7f452ac5dbc9e18ae638319e3cdc0653d06cb2f0624e0172a1e8bfb5c030a0d63800000016000846040518084815260200183815260200182151515158152602001935050505060405180910390a26142d9565b80600b60008473ffffffffffffffffffffffffffffffffffffffff1673ffffffffffffffffffffffffffffffffffffffff16815260200190815260200160002060006101000a81548160ff021916908315150217905550808015614250575061424f82612eea565b5b1561425f5761425e82614b7e565b5b3373ffffffffffffffffffffffffffffffffffffffff167fa7f452ac5dbc9e18ae638319e3cdc0653d06cb2f0624e0172a1e8bfb5c030a0d60008473ffffffffffffffffffffffffffffffffffffffff16846040518084815260200183815260200182151515158152602001935050505060405180910390a25b5050565b600080600080600085603e0a871015156142f657600080fd5b60009350600092505b8583101561437757603e8781151561431357fe5b069150600a82101561432a5760308201905061434f565b602482101561434157600a6061830103905061434e565b600a601a60418401030390505b5b8060ff166101008502019350603e8781151561436757fe5b04965082806001019350506142ff565b8360010294505050505092915050565b61438f615b02565b6000808373ffffffffffffffffffffffffffffffffffffffff1673ffffffffffffffffffffffffffffffffffffffff16815260200190815260200160002060e060405190810160405290816000820160009054906101000a900467ffffffffffffffff1667ffffffffffffffff1667ffffffffffffffff1681526020016000820160089054906101000a900463ffffffff1663ffffffff1663ffffffff16815260200160008201600c9054906101000a900463ffffffff1663ffffffff1663ffffffff1681526020016000820160109054906101000a90046fffffffffffffffffffffffffffffffff166fffffffffffffffffffffffffffffffff166fffffffffffffffffffffffffffffffff1681526020016001820160009054906101000a90046fffffffffffffffffffffffffffffffff166fffffffffffffffffffffffffffffffff166fffffffffffffffffffffffffffffffff1681526020016001820160109054906101000a90046fffffffffffffffffffffffffffffffff166fffffffffffffffffffffffffffffffff166fffffffffffffffffffffffffffffffff16815260200160028201548152505090506000816000019067ffffffffffffffff16908167ffffffffffffffff1681525050600081606001906fffffffffffffffffffffffffffffffff1690816fffffffffffffffffffffffffffffffff16815250506000816020019063ffffffff16908163ffffffff168152505060008160c0018181525050806000808473ffffffffffffffffffffffffffffffffffffffff1673ffffffffffffffffffffffffffffffffffffffff16815260200190815260200160002060008201518160000160006101000a81548167ffffffffffffffff021916908367ffffffffffffffff16021790555060208201518160000160086101000a81548163ffffffff021916908363ffffffff160217905550604082015181600001600c6101000a81548163ffffffff021916908363ffffffff16021790555060608201518160000160106101000a8154816fffffffffffffffffffffffffffffffff02191690836fffffffffffffffffffffffffffffffff16021790555060808201518160010160006101000a8154816fffffffffffffffffffffffffffffffff02191690836fffffffffffffffffffffffffffffffff16021790555060a08201518160010160106101000a8154816fffffffffffffffffffffffffffffffff02191690836fffffffffffffffffffffffffffffffff16021790555060c082015181600201559050505050565b60008060008060008060008060008060006fffffffffffffffffffffffffffffffff8f606001511699508e6080015192508e608001519150600090505b8c51811015614a5c57600060018f161115614809576fffffffffffffffffffffffffffffffff8d828151811015156147b257fe5b9060200190602002015116985060808d828151811015156147cf57fe5b906020019060200201519060020a900497508b818151811015156147ef57fe5b90602001906020020151965082955081945089935061487b565b8298508197508996506fffffffffffffffffffffffffffffffff8d8281518110151561483157fe5b9060200190602002015116955060808d8281518110151561484e57fe5b906020019060200201519060020a900494508b8181518110151561486e57fe5b9060200190602002015193505b6fffffffffffffffffffffffffffffffff6080899060020a028a01886080889060020a028901876040518085815260200184815260200183815260200182815260200194505050505060405180910390206001900416995087891015806148e25750848610155b156149e557600081111561493c577f73884516d7d74e37b06d2f16c5e139ad8d02519f4db1f6eec518b51030e5dc36638000000082604051808381526020018281526020019250505060405180910390a160009a50614b6c565b87891115614990577f73884516d7d74e37b06d2f16c5e139ad8d02519f4db1f6eec518b51030e5dc36638000000182604051808381526020018281526020019250505060405180910390a160009a50614b6c565b848611156149e4577f73884516d7d74e37b06d2f16c5e139ad8d02519f4db1f6eec518b51030e5dc36638000000282604051808381526020018281526020019250505060405180910390a160009a50614b6c565b5b8588101515614a3a577f73884516d7d74e37b06d2f16c5e139ad8d02519f4db1f6eec518b51030e5dc36638000000982604051808381526020018281526020019250505060405180910390a160009a50614b6c565b88925084915060028e811515614a4c57fe5b049d50808060010191505061477e565b8e6020015183141515614ab5577f73884516d7d74e37b06d2f16c5e139ad8d02519f4db1f6eec518b51030e5dc36638000000384604051808381526020018281526020019250505060405180910390a160009a50614b6c565b8e6040015182141515614b0e577f73884516d7d74e37b06d2f16c5e139ad8d02519f4db1f6eec518b51030e5dc36638000000483604051808381526020018281526020019250505060405180910390a160009a50614b6c565b8e600001518a141515614b67577f73884516d7d74e37b06d2f16c5e139ad8d02519f4db1f6eec518b51030e5dc3663800000058b604051808381526020018281526020019250505060405180910390a160009a50614b6c565b60019a505b50505050505050505050949350505050565b6000600760008373ffffffffffffffffffffffffffffffffffffffff1673ffffffffffffffffffffffffffffffffffffffff16815260200190815260200160002060010160006101000a81548173ffffffffffffffffffffffffffffffffffffffff021916908373ffffffffffffffffffffffffffffffffffffffff160217905550600060086000600760008573ffffffffffffffffffffffffffffffffffffffff1673ffffffffffffffffffffffffffffffffffffffff168152602001908152602001600020600001546000191660001916815260200190815260200160002060006101000a81548160ff02191690831515021790555050565b614c81615bbc565b614c89615bbc565b614c91615b02565b614c99615a5f565b6000808973ffffffffffffffffffffffffffffffffffffffff1673ffffffffffffffffffffffffffffffffffffffff16815260200190815260200160002060e060405190810160405290816000820160009054906101000a900467ffffffffffffffff1667ffffffffffffffff1667ffffffffffffffff1681526020016000820160089054906101000a900463ffffffff1663ffffffff1663ffffffff16815260200160008201600c9054906101000a900463ffffffff1663ffffffff1663ffffffff1681526020016000820160109054906101000a90046fffffffffffffffffffffffffffffffff166fffffffffffffffffffffffffffffffff166fffffffffffffffffffffffffffffffff1681526020016001820160009054906101000a90046fffffffffffffffffffffffffffffffff166fffffffffffffffffffffffffffffffff166fffffffffffffffffffffffffffffffff1681526020016001820160109054906101000a90046fffffffffffffffffffffffffffffffff166fffffffffffffffffffffffffffffffff166fffffffffffffffffffffffffffffffff16815260200160028201548152505091508160a001516fffffffffffffffffffffffffffffffff1683600001818152505081608001516fffffffffffffffffffffffffffffffff1683602001818152505081606001516fffffffffffffffffffffffffffffffff16836040018181525050600160008973ffffffffffffffffffffffffffffffffffffffff1673ffffffffffffffffffffffffffffffffffffffff168152602001908152602001600020600088815260200190815260200160002060c060405190810160405290816000820160009054906101000a90046fffffffffffffffffffffffffffffffff166fffffffffffffffffffffffffffffffff166fffffffffffffffffffffffffffffffff1681526020016000820160109054906101000a90046fffffffffffffffffffffffffffffffff166fffffffffffffffffffffffffffffffff166fffffffffffffffffffffffffffffffff1681526020016001820160009054906101000a90046fffffffffffffffffffffffffffffffff166fffffffffffffffffffffffffffffffff166fffffffffffffffffffffffffffffffff1681526020016001820160109054906101000a90046fffffffffffffffffffffffffffffffff166fffffffffffffffffffffffffffffffff166fffffffffffffffffffffffffffffffff1681526020016002820160009054906101000a90046fffffffffffffffffffffffffffffffff166fffffffffffffffffffffffffffffffff166fffffffffffffffffffffffffffffffff1681526020016002820160109054906101000a90046fffffffffffffffffffffffffffffffff166fffffffffffffffffffffffffffffffff166fffffffffffffffffffffffffffffffff1681525050905080606001516fffffffffffffffffffffffffffffffff1683606001818152505080608001516fffffffffffffffffffffffffffffffff168360800181815250508060a001516fffffffffffffffffffffffffffffffff168360a001818152505061513188868989611f5b565b8360c00190151590811515815250506000826020015163ffffffff16118360e0019015159081151581525050829350505050949350505050565b615173615c06565b61517b615c06565b615183615c39565b6000615196615191866156b2565b61570d565b91505b6151a282615755565b156152985760008114156151cf576151c16151bc8361577f565b6157db565b83600001818152505061528b565b60028114156151f7576151e96151e48361577f565b6157db565b83602001818152505061528a565b600881141561521f5761521161520c8361577f565b6157db565b836040018181525050615289565b600b811415615247576152396152348361577f565b6157db565b836060018181525050615288565b600c81141561527c5761526161525c8361577f565b6157db565b60010283608001906000191690816000191681525050615287565b6152858261577f565b505b5b5b5b5b8080600101915050615199565b829350505050919050565b60008060008091505b600b8210156153dc5784826015016020811015156152c657fe5b1a7f0100000000000000000000000000000000000000000000000000000000000000027effffffffffffffffffffffffffffffffffffffffffffffffffffffffffffff19168683600a0160208110151561531c57fe5b1a7f0100000000000000000000000000000000000000000000000000000000000000027effffffffffffffffffffffffffffffffffffffffffffffffffffffffffffff19161415156153cf573373ffffffffffffffffffffffffffffffffffffffff167f1f663d8c427e3fbf090ed8c66536b06651bca95051509e3a45cb1cbb286312e863830000008760019004604051808381526020018281526020019250505060405180910390a260009250615523565b81806001019250506152ac565b6153e784600b6142dd565b9050600091505b600b82101561551e57808260150160208110151561540857fe5b1a7f0100000000000000000000000000000000000000000000000000000000000000027effffffffffffffffffffffffffffffffffffffffffffffffffffffffffffff1916866015840160208110151561545e57fe5b1a7f0100000000000000000000000000000000000000000000000000000000000000027effffffffffffffffffffffffffffffffffffffffffffffffffffffffffffff1916141515615511573373ffffffffffffffffffffffffffffffffffffffff167f1f663d8c427e3fbf090ed8c66536b06651bca95051509e3a45cb1cbb286312e863830000018360019004604051808381526020018281526020019250505060405180910390a260009250615523565b81806001019250506153ee565b600192505b50509392505050565b600080839050619c40600c54619c4003820281151561554757fe5b049050612710600d5461271003820281151561555f57fe5b0490503073ffffffffffffffffffffffffffffffffffffffff16318111156155e4573373ffffffffffffffffffffffffffffffffffffffff167f096caf97202169a068288f02e51ff9fcc85f98e1477f6ad9acbf6ebf25dbcd00638400000083604051808381526020018281526020019250505060405180910390a2600091506156ab565b8273ffffffffffffffffffffffffffffffffffffffff166108fc829081150290604051600060405180830381858888f19350505050151561562457600080fd5b3373ffffffffffffffffffffffffffffffffffffffff167f64f5f298ab343379f4797d6e595da2d4b4827beba0f856adaa2c02f2fa2ec6be8483604051808373ffffffffffffffffffffffffffffffffffffffff1673ffffffffffffffffffffffffffffffffffffffff1681526020018281526020019250505060405180910390a2600191505b5092915050565b6156ba615c5a565b6000808351915060008214156156e85760408051908101604052806000815260200160008152509250615706565b60208401905060408051908101604052808281526020018381525092505b5050919050565b615715615c39565b60006157208361582e565b151561572b57600080fd5b61573483615860565b83600001510190508282600001819052508082602001818152505050919050565b600061575f615c5a565b826000015190508060200151816000015101836020015110915050919050565b615787615c5a565b60008061579384615755565b156157cf57836020015191506157a8826158ec565b905081836000018181525050808360200181815250508082018460200181815250506157d4565b600080fd5b5050919050565b60008060006157e984615986565b15156157f457600080fd5b6157fd846159b7565b9150915060208111806158105750600081145b1561581a57600080fd5b806020036101000a82510492505050919050565b600080600083602001511415615847576000915061585a565b8260000151905060c0815160001a101591505b50919050565b6000806000808460200151141561587a57600092506158e5565b83600001519050805160001a9150608082101561589a57600092506158e5565b60b88210806158b6575060c082101580156158b5575060f882105b5b156158c457600192506158e5565b60c08210156158db57600160b783030192506158e5565b600160f783030192505b5050919050565b600080825160001a905060808110156159085760019150615980565b60b881101561591f5760016080820301915061597f565b60c08110156159495760b78103806020036101000a6001850151048082016001019350505061597e565b60f881101561596057600160c0820301915061597d565b60f78103806020036101000a600185015104808201600101935050505b5b5b5b50919050565b60008060008360200151141561599f57600091506159b1565b8260000151905060c0815160001a1091505b50919050565b60008060008060006159c886615986565b15156159d357600080fd5b85600001519150815160001a925060808310156159f65781945060019350615a30565b60b8831015615a145760018660200151039350600182019450615a2f565b60b78303905080600187602001510303935060018183010194505b5b505050915091565b60408051908101604052806002905b6000815260200190600190039081615a475790505090565b60c06040519081016040528060006fffffffffffffffffffffffffffffffff16815260200160006fffffffffffffffffffffffffffffffff16815260200160006fffffffffffffffffffffffffffffffff16815260200160006fffffffffffffffffffffffffffffffff16815260200160006fffffffffffffffffffffffffffffffff16815260200160006fffffffffffffffffffffffffffffffff1681525090565b60e060405190810160405280600067ffffffffffffffff168152602001600063ffffffff168152602001600063ffffffff16815260200160006fffffffffffffffffffffffffffffffff16815260200160006fffffffffffffffffffffffffffffffff16815260200160006fffffffffffffffffffffffffffffffff168152602001600081525090565b60a06040519081016040528060008152602001600081526020016000815260200160008152602001600081525090565b610100604051908101604052806000815260200160008152602001600081526020016000815260200160008152602001600081526020016000151581526020016000151581525090565b60a06040519081016040528060008152602001600081526020016000815260200160008152602001600080191681525090565b606060405190810160405280615c4d615c74565b8152602001600081525090565b604080519081016040528060008152602001600081525090565b6040805190810160405280600081526020016000815250905600a165627a7a723058203629de4d566aea2a78208755e7d29b17fbd993bc38c5ec3199752059a71c92d40029",
  "source": "pragma solidity ^0.4.13;\n\n//solc --bin --abi --optimize  --optimize-runs 20000 -o . Testpool.sol \n\n\nimport \"./Ethash.sol\";\n\n/**\n* @title RLPReader\n*\n* RLPReader is used to read and parse RLP encoded data in memory.\n*\n* @author Andreas Olofsson (androlo1980@gmail.com)\n*\n* code was taken from https://github.com/androlo/standard-contracts/blob/master/contracts/src/codec/RLP.sol\n*\n*/\nlibrary RLP {\n\n uint constant DATA_SHORT_START = 0x80;\n uint constant DATA_LONG_START = 0xB8;\n uint constant LIST_SHORT_START = 0xC0;\n uint constant LIST_LONG_START = 0xF8;\n\n uint constant DATA_LONG_OFFSET = 0xB7;\n uint constant LIST_LONG_OFFSET = 0xF7;\n\n\n struct RLPItem {\n     uint _unsafe_memPtr;    // Pointer to the RLP-encoded bytes.\n     uint _unsafe_length;    // Number of bytes. This is the full length of the string.\n }\n\n struct Iterator {\n     RLPItem _unsafe_item;   // Item that's being iterated over.\n     uint _unsafe_nextPtr;   // Position of the next item in the list.\n }\n\n /* Iterator */\n\n function next(Iterator memory self) internal constant returns (RLPItem memory subItem) {\n     if(hasNext(self)) {\n         var ptr = self._unsafe_nextPtr;\n         var itemLength = _itemLength(ptr);\n         subItem._unsafe_memPtr = ptr;\n         subItem._unsafe_length = itemLength;\n         self._unsafe_nextPtr = ptr + itemLength;\n     }\n     else\n         revert();\n }\n\n function next(Iterator memory self, bool strict) internal constant returns (RLPItem memory subItem) {\n     subItem = next(self);\n     if(strict && !_validate(subItem))\n         revert();\n     return;\n }\n\n function hasNext(Iterator memory self) internal constant returns (bool) {\n     var item = self._unsafe_item;\n     return self._unsafe_nextPtr < item._unsafe_memPtr + item._unsafe_length;\n }\n\n /* RLPItem */\n\n /// @dev Creates an RLPItem from an array of RLP encoded bytes.\n /// @param self The RLP encoded bytes.\n /// @return An RLPItem\n function toRLPItem(bytes memory self) internal constant returns (RLPItem memory) {\n     uint len = self.length;\n     if (len == 0) {\n         return RLPItem(0, 0);\n     }\n     uint memPtr;\n     assembly {\n         memPtr := add(self, 0x20)\n     }\n     return RLPItem(memPtr, len);\n }\n\n /// @dev Creates an RLPItem from an array of RLP encoded bytes.\n /// @param self The RLP encoded bytes.\n /// @param strict Will throw if the data is not RLP encoded.\n /// @return An RLPItem\n function toRLPItem(bytes memory self, bool strict) internal constant returns (RLPItem memory) {\n     var item = toRLPItem(self);\n     if(strict) {\n         uint len = self.length;\n         if(_payloadOffset(item) > len)\n             revert();\n         if(_itemLength(item._unsafe_memPtr) != len)\n             revert();\n         if(!_validate(item))\n             revert();\n     }\n     return item;\n }\n\n /// @dev Check if the RLP item is null.\n /// @param self The RLP item.\n /// @return 'true' if the item is null.\n function isNull(RLPItem memory self) internal constant returns (bool ret) {\n     return self._unsafe_length == 0;\n }\n\n /// @dev Check if the RLP item is a list.\n /// @param self The RLP item.\n /// @return 'true' if the item is a list.\n function isList(RLPItem memory self) internal constant returns (bool ret) {\n     if (self._unsafe_length == 0)\n         return false;\n     uint memPtr = self._unsafe_memPtr;\n     assembly {\n         ret := iszero(lt(byte(0, mload(memPtr)), 0xC0))\n     }\n }\n\n /// @dev Check if the RLP item is data.\n /// @param self The RLP item.\n /// @return 'true' if the item is data.\n function isData(RLPItem memory self) internal constant returns (bool ret) {\n     if (self._unsafe_length == 0)\n         return false;\n     uint memPtr = self._unsafe_memPtr;\n     assembly {\n         ret := lt(byte(0, mload(memPtr)), 0xC0)\n     }\n }\n\n /// @dev Check if the RLP item is empty (string or list).\n /// @param self The RLP item.\n /// @return 'true' if the item is null.\n function isEmpty(RLPItem memory self) internal constant returns (bool ret) {\n     if(isNull(self))\n         return false;\n     uint b0;\n     uint memPtr = self._unsafe_memPtr;\n     assembly {\n         b0 := byte(0, mload(memPtr))\n     }\n     return (b0 == DATA_SHORT_START || b0 == LIST_SHORT_START);\n }\n\n /// @dev Get the number of items in an RLP encoded list.\n /// @param self The RLP item.\n /// @return The number of items.\n function items(RLPItem memory self) internal constant returns (uint) {\n     if (!isList(self))\n         return 0;\n     uint b0;\n     uint memPtr = self._unsafe_memPtr;\n     assembly {\n         b0 := byte(0, mload(memPtr))\n     }\n     uint pos = memPtr + _payloadOffset(self);\n     uint last = memPtr + self._unsafe_length - 1;\n     uint itms;\n     while(pos <= last) {\n         pos += _itemLength(pos);\n         itms++;\n     }\n     return itms;\n }\n\n /// @dev Create an iterator.\n /// @param self The RLP item.\n /// @return An 'Iterator' over the item.\n function iterator(RLPItem memory self) internal constant returns (Iterator memory it) {\n     if (!isList(self))\n         revert();\n     uint ptr = self._unsafe_memPtr + _payloadOffset(self);\n     it._unsafe_item = self;\n     it._unsafe_nextPtr = ptr;\n }\n\n /// @dev Return the RLP encoded bytes.\n /// @param self The RLPItem.\n /// @return The bytes.\n /*\n function toBytes(RLPItem memory self) internal constant returns (bytes memory bts) {\n     var len = self._unsafe_length;\n     if (len == 0)\n         return;\n     bts = new bytes(len);\n     _copyToBytes(self._unsafe_memPtr, bts, len);\n }*/\n\n /// @dev Decode an RLPItem into bytes. This will not work if the\n /// RLPItem is a list.\n /// @param self The RLPItem.\n /// @return The decoded string.\n /*\n function toData(RLPItem memory self) internal constant returns (bytes memory bts) {\n     if(!isData(self))\n         revert();\n     var (rStartPos, len) = _decode(self);\n     bts = new bytes(len);\n     _copyToBytes(rStartPos, bts, len);\n }*/\n\n /// @dev Get the list of sub-items from an RLP encoded list.\n /// Warning: This is inefficient, as it requires that the list is read twice.\n /// @param self The RLP item.\n /// @return Array of RLPItems.\n function toList(RLPItem memory self) internal constant returns (RLPItem[] memory list) {\n     if(!isList(self))\n         revert();\n     var numItems = items(self);\n     list = new RLPItem[](numItems);\n     var it = iterator(self);\n     uint idx;\n     while(hasNext(it)) {\n         list[idx] = next(it);\n         idx++;\n     }\n }\n\n /// @dev Decode an RLPItem into an ascii string. This will not work if the\n /// RLPItem is a list.\n /// @param self The RLPItem.\n /// @return The decoded string.\n /*\n function toAscii(RLPItem memory self) internal constant returns (string memory str) {\n     if(!isData(self))\n         revert();\n     var (rStartPos, len) = _decode(self);\n     bytes memory bts = new bytes(len);\n     _copyToBytes(rStartPos, bts, len);\n     str = string(bts);\n }*/\n\n /// @dev Decode an RLPItem into a uint. This will not work if the\n /// RLPItem is a list.\n /// @param self The RLPItem.\n /// @return The decoded string.\n function toUint(RLPItem memory self) internal constant returns (uint data) {\n     if(!isData(self))\n         revert();\n     var (rStartPos, len) = _decode(self);\n     if (len > 32 || len == 0)\n         revert();\n     assembly {\n         data := div(mload(rStartPos), exp(256, sub(32, len)))\n     }\n }\n\n /// @dev Decode an RLPItem into a boolean. This will not work if the\n /// RLPItem is a list.\n /// @param self The RLPItem.\n /// @return The decoded string.\n function toBool(RLPItem memory self) internal constant returns (bool data) {\n     if(!isData(self))\n         revert();\n     var (rStartPos, len) = _decode(self);\n     if (len != 1)\n         revert();\n     uint temp;\n     assembly {\n         temp := byte(0, mload(rStartPos))\n     }\n     if (temp > 1)\n         revert();\n     return temp == 1 ? true : false;\n }\n\n /// @dev Decode an RLPItem into a byte. This will not work if the\n /// RLPItem is a list.\n /// @param self The RLPItem.\n /// @return The decoded string.\n function toByte(RLPItem memory self) internal constant returns (byte data) {\n     if(!isData(self))\n         revert();\n     var (rStartPos, len) = _decode(self);\n     if (len != 1)\n         revert();\n     uint temp;\n     assembly {\n         temp := byte(0, mload(rStartPos))\n     }\n     return byte(temp);\n }\n\n /// @dev Decode an RLPItem into an int. This will not work if the\n /// RLPItem is a list.\n /// @param self The RLPItem.\n /// @return The decoded string.\n function toInt(RLPItem memory self) internal constant returns (int data) {\n     return int(toUint(self));\n }\n\n /// @dev Decode an RLPItem into a bytes32. This will not work if the\n /// RLPItem is a list.\n /// @param self The RLPItem.\n /// @return The decoded string.\n function toBytes32(RLPItem memory self) internal constant returns (bytes32 data) {\n     return bytes32(toUint(self));\n }\n\n /// @dev Decode an RLPItem into an address. This will not work if the\n /// RLPItem is a list.\n /// @param self The RLPItem.\n /// @return The decoded string.\n function toAddress(RLPItem memory self) internal constant returns (address data) {\n     if(!isData(self))\n         revert();\n     var (rStartPos, len) = _decode(self);\n     if (len != 20)\n         revert();\n     assembly {\n         data := div(mload(rStartPos), exp(256, 12))\n     }\n }\n\n // Get the payload offset.\n function _payloadOffset(RLPItem memory self) private constant returns (uint) {\n     if(self._unsafe_length == 0)\n         return 0;\n     uint b0;\n     uint memPtr = self._unsafe_memPtr;\n     assembly {\n         b0 := byte(0, mload(memPtr))\n     }\n     if(b0 < DATA_SHORT_START)\n         return 0;\n     if(b0 < DATA_LONG_START || (b0 >= LIST_SHORT_START && b0 < LIST_LONG_START))\n         return 1;\n     if(b0 < LIST_SHORT_START)\n         return b0 - DATA_LONG_OFFSET + 1;\n     return b0 - LIST_LONG_OFFSET + 1;\n }\n\n // Get the full length of an RLP item.\n function _itemLength(uint memPtr) private constant returns (uint len) {\n     uint b0;\n     assembly {\n         b0 := byte(0, mload(memPtr))\n     }\n     if (b0 < DATA_SHORT_START)\n         len = 1;\n     else if (b0 < DATA_LONG_START)\n         len = b0 - DATA_SHORT_START + 1;\n     else if (b0 < LIST_SHORT_START) {\n         assembly {\n             let bLen := sub(b0, 0xB7) // bytes length (DATA_LONG_OFFSET)\n             let dLen := div(mload(add(memPtr, 1)), exp(256, sub(32, bLen))) // data length\n             len := add(1, add(bLen, dLen)) // total length\n         }\n     }\n     else if (b0 < LIST_LONG_START)\n         len = b0 - LIST_SHORT_START + 1;\n     else {\n         assembly {\n             let bLen := sub(b0, 0xF7) // bytes length (LIST_LONG_OFFSET)\n             let dLen := div(mload(add(memPtr, 1)), exp(256, sub(32, bLen))) // data length\n             len := add(1, add(bLen, dLen)) // total length\n         }\n     }\n }\n\n // Get start position and length of the data.\n function _decode(RLPItem memory self) private constant returns (uint memPtr, uint len) {\n     if(!isData(self))\n         revert();\n     uint b0;\n     uint start = self._unsafe_memPtr;\n     assembly {\n         b0 := byte(0, mload(start))\n     }\n     if (b0 < DATA_SHORT_START) {\n         memPtr = start;\n         len = 1;\n         return;\n     }\n     if (b0 < DATA_LONG_START) {\n         len = self._unsafe_length - 1;\n         memPtr = start + 1;\n     } else {\n         uint bLen;\n         assembly {\n             bLen := sub(b0, 0xB7) // DATA_LONG_OFFSET\n         }\n         len = self._unsafe_length - 1 - bLen;\n         memPtr = start + bLen + 1;\n     }\n     return;\n }\n\n // Assumes that enough memory has been allocated to store in target.\n /* this code is commented because I am too lazy to fix it to prevent jumpi warning, and since I don't use it anyway, I might as well just remove it. \n function _copyToBytes(uint btsPtr, bytes memory tgt, uint btsLen) private constant {\n     // Exploiting the fact that 'tgt' was the last thing to be allocated,\n     // we can write entire words, and just overwrite any excess.\n     assembly {\n         {\n                 let i := 0 // Start at arr + 0x20\n                 let words := div(add(btsLen, 31), 32)\n                 let rOffset := btsPtr\n                 let wOffset := add(tgt, 0x20)\n             tag_loop:\n                 jumpi(end, eq(i, words))\n                 {\n                     let offset := mul(i, 0x20)\n                     mstore(add(wOffset, offset), mload(add(rOffset, offset)))\n                     i := add(i, 1)\n                 }\n                 jump(tag_loop)\n             end:\n                 mstore(add(tgt, add(0x20, mload(tgt))), 0)\n         }\n     }\n }*/\n\n     // Check that an RLP item is valid.\n     function _validate(RLPItem memory self) private constant returns (bool ret) {\n         // Check that RLP is well-formed.\n         uint b0;\n         uint b1;\n         uint memPtr = self._unsafe_memPtr;\n         assembly {\n             b0 := byte(0, mload(memPtr))\n             b1 := byte(1, mload(memPtr))\n         }\n         if(b0 == DATA_SHORT_START + 1 && b1 < DATA_SHORT_START)\n             return false;\n         return true;\n     }\n}\n\n\n\n\ncontract Agt {\n    using RLP for RLP.RLPItem;\n    using RLP for RLP.Iterator;\n    using RLP for bytes;\n \n    struct BlockHeader {\n        uint       prevBlockHash; // 0\n        uint       coinbase;      // 1\n        uint       blockNumber;   // 8\n        //uint       gasUsed;       // 10\n        uint       timestamp;     // 11\n        bytes32    extraData;     // 12\n    }\n \n    function Agt() {}\n     \n    function parseBlockHeader( bytes rlpHeader ) constant internal returns(BlockHeader) {\n        BlockHeader memory header;\n        \n        var it = rlpHeader.toRLPItem().iterator();        \n        uint idx;\n        while(it.hasNext()) {\n            if( idx == 0 ) header.prevBlockHash = it.next().toUint();\n            else if ( idx == 2 ) header.coinbase = it.next().toUint();\n            else if ( idx == 8 ) header.blockNumber = it.next().toUint();\n            else if ( idx == 11 ) header.timestamp = it.next().toUint();\n            else if ( idx == 12 ) header.extraData = bytes32(it.next().toUint());\n            else it.next();\n            \n            idx++;\n        }\n \n        return header;        \n    }\n            \n    //event VerifyAgt( string msg, uint index );\n    event VerifyAgt( uint error, uint index );    \n    \n    struct VerifyAgtData {\n        uint rootHash;\n        uint rootMin;\n        uint rootMax;\n        \n        uint leafHash;\n        uint leafCounter;        \n    }\n\n    function verifyAgt( VerifyAgtData data,\n                        uint   branchIndex,\n                        uint[] countersBranch,\n                        uint[] hashesBranch ) constant internal returns(bool) {\n                        \n        uint currentHash = data.leafHash & 0xFFFFFFFFFFFFFFFFFFFFFFFFFFFFFFFF;\n        \n        uint leftCounterMin;\n        uint leftCounterMax;        \n        uint leftHash;\n        \n        uint rightCounterMin;\n        uint rightCounterMax;        \n        uint rightHash;\n        \n        uint min = data.leafCounter;\n        uint max = data.leafCounter;\n        \n        for( uint i = 0 ; i < countersBranch.length ; i++ ) {\n            if( branchIndex & 0x1 > 0 ) {\n                leftCounterMin = countersBranch[i] & 0xFFFFFFFFFFFFFFFFFFFFFFFFFFFFFFFF;\n                leftCounterMax = countersBranch[i] >> 128;                \n                leftHash    = hashesBranch[i];\n                \n                rightCounterMin = min;\n                rightCounterMax = max;\n                rightHash    = currentHash;                \n            }\n            else {                \n                leftCounterMin = min;\n                leftCounterMax = max;\n                leftHash    = currentHash;\n                \n                rightCounterMin = countersBranch[i] & 0xFFFFFFFFFFFFFFFFFFFFFFFFFFFFFFFF;\n                rightCounterMax = countersBranch[i] >> 128;                \n                rightHash    = hashesBranch[i];                                            \n            }\n            \n            currentHash = uint(sha3(leftCounterMin + (leftCounterMax << 128),\n                                    leftHash,\n                                    rightCounterMin + (rightCounterMax << 128),\n                                    rightHash)) & 0xFFFFFFFFFFFFFFFFFFFFFFFFFFFFFFFF;\n            \n            if( (leftCounterMin >= leftCounterMax) || (rightCounterMin >= rightCounterMax) ) {\n                if( i > 0 ) {\n                    //VerifyAgt( \"counters mismatch\",i);\n                    VerifyAgt( 0x80000000, i );\n                    return false;\n                }\n                if( leftCounterMin > leftCounterMax ) {\n                    //VerifyAgt( \"counters mismatch\",i);\n                    VerifyAgt( 0x80000001, i );                \n                    return false;\n                }\n                if( rightCounterMin > rightCounterMax ) {\n                    //VerifyAgt( \"counters mismatch\",i);\n                    VerifyAgt( 0x80000002, i );                \n                    return false;\n                }                \n            }\n            \n            if( leftCounterMax >= rightCounterMin ) {\n                VerifyAgt( 0x80000009, i );            \n                return false;\n            }\n\n            min = leftCounterMin;\n            max = rightCounterMax;\n            \n            branchIndex = branchIndex / 2;\n        }\n\n        if( min != data.rootMin ) {\n            //VerifyAgt( \"min does not match root min\",min);\n            VerifyAgt( 0x80000003, min );                        \n            return false;\n        }\n        if( max != data.rootMax ) {\n            //VerifyAgt( \"max does not match root max\",max);\n            VerifyAgt( 0x80000004, max );                    \n            return false;\n        }\n        \n        if( currentHash != data.rootHash ) {\n            //VerifyAgt( \"hash does not match root hash\",currentHash);        \n            VerifyAgt( 0x80000005, currentHash );\n            return false;\n        }\n        \n        return true;\n    }\n    \n    function verifyAgtDebugForTesting( uint rootHash,\n                                       uint rootMin,\n                                       uint rootMax,\n                                       uint leafHash,\n                                       uint leafCounter,\n                                       uint branchIndex,\n                                       uint[] countersBranch,\n                                       uint[] hashesBranch ) returns(bool) {\n                                       \n        VerifyAgtData memory data;\n        data.rootHash = rootHash;\n        data.rootMin = rootMin;\n        data.rootMax = rootMax;\n        data.leafHash = leafHash;\n        data.leafCounter = leafCounter;\n        \n        return verifyAgt( data, branchIndex, countersBranch, hashesBranch );\n    }         \n}\n\ncontract WeightedSubmission {\n    function WeightedSubmission(){}\n    \n    struct SingleSubmissionData {\n        uint128 numShares;\n        uint128 submissionValue;\n        uint128 totalPreviousSubmissionValue;\n        uint128 min;\n        uint128 max;\n        uint128 augRoot;\n    }\n    \n    struct SubmissionMetaData {\n        uint64  numPendingSubmissions;\n        uint32  readyForVerification; // suppose to be bool\n        uint32  lastSubmissionBlockNumber;\n        uint128 totalSubmissionValue;\n        uint128 difficulty;\n        uint128 lastCounter;\n        \n        uint    submissionSeed;\n        \n    }\n    \n    mapping(address=>SubmissionMetaData) submissionsMetaData;\n    \n    // (user, submission number)=>data\n    mapping(address=>mapping(uint=>SingleSubmissionData)) submissionsData;\n    \n    event SubmitClaim( address indexed sender, uint error, uint errorInfo );\n    function submitClaim( uint numShares, uint difficulty, uint min, uint max, uint augRoot, bool lastClaimBeforeVerification ) {\n        SubmissionMetaData memory metaData = submissionsMetaData[msg.sender];\n        \n        if( metaData.lastCounter >= min ) {\n            // miner cheated. min counter is too low\n            SubmitClaim( msg.sender, 0x81000001, metaData.lastCounter ); \n            return;        \n        }\n        \n        if( metaData.readyForVerification > 0 ) {\n            // miner cheated - should go verification first\n            SubmitClaim( msg.sender, 0x81000002, 0 ); \n            return;\n        }\n        \n        if( metaData.numPendingSubmissions > 0 ) {\n            if( metaData.difficulty != difficulty ) {\n                // could not change difficulty before verification\n                SubmitClaim( msg.sender, 0x81000003, metaData.difficulty ); \n                return;            \n            }\n        }\n        \n        SingleSubmissionData memory submissionData;\n        \n        submissionData.numShares = uint64(numShares);\n        uint blockDifficulty;\n        if( block.difficulty == 0 ) {\n            // testrpc - fake increasing difficulty\n            blockDifficulty = (900000000 * (metaData.numPendingSubmissions+1)); \n        }\n        else {\n            blockDifficulty = block.difficulty;\n        }\n        \n        submissionData.submissionValue = uint128((uint(numShares * difficulty) * (5 ether)) / blockDifficulty);\n        \n        submissionData.totalPreviousSubmissionValue = metaData.totalSubmissionValue;\n        submissionData.min = uint128(min);\n        submissionData.max = uint128(max);\n        submissionData.augRoot = uint128(augRoot);\n        \n        (submissionsData[msg.sender])[metaData.numPendingSubmissions] = submissionData;\n        \n        // update meta data\n        metaData.numPendingSubmissions++;\n        metaData.lastSubmissionBlockNumber = uint32(block.number);\n        metaData.difficulty = uint128(difficulty);\n        metaData.lastCounter = uint128(max);\n        metaData.readyForVerification = lastClaimBeforeVerification ? uint32(1) : uint32(0);\n\n        uint128 temp128;\n        \n        \n        temp128 = metaData.totalSubmissionValue; \n\n        metaData.totalSubmissionValue += submissionData.submissionValue;\n        \n        if( temp128 > metaData.totalSubmissionValue ) {\n            // overflow in calculation\n            // note that this code is reachable if user is dishonest and give false\n            // report on his submission. but even without\n            // this validation, user cannot benifit from the overflow\n            SubmitClaim( msg.sender, 0x81000005, 0 ); \n            return;                                \n        }\n                \n        \n        submissionsMetaData[msg.sender] = metaData;\n        \n        // everything is ok\n        SubmitClaim( msg.sender, 0, numShares * difficulty );\n    }\n\n    function getClaimSeed(address sender) constant returns(uint){\n        SubmissionMetaData memory metaData = submissionsMetaData[sender];\n        if( metaData.readyForVerification == 0 ) return 0;\n        \n        if( metaData.submissionSeed != 0 ) return metaData.submissionSeed; \n        \n        uint lastBlockNumber = uint(metaData.lastSubmissionBlockNumber);\n        \n        if( block.number > lastBlockNumber + 200 ) return 0;\n        if( block.number <= lastBlockNumber + 15 ) return 0;\n                \n        return uint(block.blockhash(lastBlockNumber + 10));\n    }\n    \n    event StoreClaimSeed( address indexed sender, uint error, uint errorInfo );\n    function storeClaimSeed( address miner ) {\n        // anyone who is willing to pay gas fees can call this function\n        uint seed = getClaimSeed( miner );\n        if( seed != 0 ) {\n            submissionsMetaData[miner].submissionSeed = seed;\n            StoreClaimSeed( msg.sender, 0, uint(miner) );\n            return;\n        }\n        \n        // else\n        SubmissionMetaData memory metaData = submissionsMetaData[miner];\n        uint lastBlockNumber = uint(metaData.lastSubmissionBlockNumber);\n                \n        if( metaData.readyForVerification == 0 ) {\n            // submission is not ready for verification\n            StoreClaimSeed( msg.sender, 0x8000000, uint(miner) );\n        }\n        else if( block.number > lastBlockNumber + 200 ) {\n            // submission is not ready for verification\n            StoreClaimSeed( msg.sender, 0x8000001, uint(miner) );\n        }\n        else if( block.number <= lastBlockNumber + 15 ) {\n            // it is too late to call store function\n            StoreClaimSeed( msg.sender, 0x8000002, uint(miner) );\n        }\n        else {\n            // unknown error\n            StoreClaimSeed( msg.sender, 0x8000003, uint(miner) );\n        }\n    }\n\n    function verifySubmissionIndex( address sender, uint seed, uint submissionNumber, uint shareIndex ) constant returns(bool) {\n        if( seed == 0 ) return false;\n    \n        uint totalValue = uint(submissionsMetaData[sender].totalSubmissionValue);\n        uint numPendingSubmissions = uint(submissionsMetaData[sender].numPendingSubmissions);\n\n        SingleSubmissionData memory submissionData = (submissionsData[sender])[submissionNumber];        \n        \n        if( submissionNumber >= numPendingSubmissions ) return false;\n        \n        uint seed1 = seed & 0xFFFFFFFFFFFFFFFFFFFFFFFFFFFFFFFF;\n        uint seed2 = seed / (2**128);\n        \n        uint selectedValue = seed1 % totalValue;\n        if( uint(submissionData.totalPreviousSubmissionValue) >= selectedValue ) return false;\n        if( uint(submissionData.totalPreviousSubmissionValue + submissionData.submissionValue) < selectedValue ) return false;  \n\n        uint expectedShareshareIndex = (seed2 % uint(submissionData.numShares));\n        if( expectedShareshareIndex != shareIndex ) return false;\n        \n        return true;\n    }\n    \n    function calculateSubmissionIndex( address sender, uint seed ) constant returns(uint[2]) {\n        // this function should be executed off chain - hene, it is not optimized\n        uint seed1 = seed & 0xFFFFFFFFFFFFFFFFFFFFFFFFFFFFFFFF;\n        uint seed2 = seed / (2**128);\n\n        uint totalValue = uint(submissionsMetaData[sender].totalSubmissionValue);\n        uint numPendingSubmissions = uint(submissionsMetaData[sender].numPendingSubmissions);\n\n        uint selectedValue = seed1 % totalValue;\n        \n        SingleSubmissionData memory submissionData;        \n        \n        for( uint submissionInd = 0 ; submissionInd < numPendingSubmissions ; submissionInd++ ) {\n            submissionData = (submissionsData[sender])[submissionInd];        \n            if( uint(submissionData.totalPreviousSubmissionValue + submissionData.submissionValue) >= selectedValue ) break;  \n        }\n        \n        // unexpected error\n        if( submissionInd == numPendingSubmissions ) return [uint(0xFFFFFFFFFFFFFFFF),0xFFFFFFFFFFFFFFFF];\n\n        uint shareIndex = seed2 % uint(submissionData.numShares); \n        \n        return [submissionInd, shareIndex];\n    }\n    \n    // should be called only from verify claim\n    function closeSubmission( address sender ) internal {\n        SubmissionMetaData memory metaData = submissionsMetaData[sender];\n        metaData.numPendingSubmissions = 0;\n        metaData.totalSubmissionValue = 0;\n        metaData.readyForVerification = 0;\n        metaData.submissionSeed = 0;\n        \n        // last counter must not be reset\n        // last submission block number and difficulty are also kept, but it is not a must\n        // only to save some gas        \n        \n        submissionsMetaData[sender] = metaData;\n    }\n    \n    struct SubmissionDataForClaimVerification {\n        uint lastCounter;\n        uint shareDifficulty;\n        uint totalSubmissionValue;\n        uint min;\n        uint max;\n        uint augMerkle;\n        \n        bool indicesAreValid;\n        bool readyForVerification;\n    }\n    \n    function getClaimData( address sender, uint submissionIndex, uint shareIndex, uint seed )\n                           constant internal returns(SubmissionDataForClaimVerification){\n                           \n        SubmissionDataForClaimVerification memory output;\n\n        SubmissionMetaData memory metaData = submissionsMetaData[sender];\n        \n        output.lastCounter = uint(metaData.lastCounter);\n        output.shareDifficulty = uint(metaData.difficulty);\n        output.totalSubmissionValue = metaData.totalSubmissionValue;\n        \n\n        SingleSubmissionData memory submissionData = (submissionsData[sender])[submissionIndex];\n        \n        output.min = uint(submissionData.min);\n        output.max = uint(submissionData.max);\n        output.augMerkle = uint(submissionData.augRoot);\n        \n        output.indicesAreValid = verifySubmissionIndex( sender, seed, submissionIndex, shareIndex );\n        output.readyForVerification = (metaData.readyForVerification > 0);\n        \n        return output; \n    }\n    \n    function debugGetNumPendingSubmissions( address sender ) constant returns(uint) {\n        return uint(submissionsMetaData[sender].numPendingSubmissions);\n    }\n    \n    event DebugResetSubmissions( address indexed sender, uint error, uint errorInfo );\n    function debugResetSubmissions( ) {\n        // should be called only in emergency\n        // msg.sender will loose all its pending shares\n        closeSubmission(msg.sender);\n        DebugResetSubmissions( msg.sender, 0, 0 );\n    }    \n}\n\n\ncontract SmartPool is Agt, WeightedSubmission {    \n    string  public version = \"0.1.1\";\n    \n    Ethash  public ethashContract; \n    address public withdrawalAddress;\n    mapping(address=>bool) public owners; \n    \n    bool public newVersionReleased = false;\n        \n    struct MinerData {\n        bytes32        minerId;\n        address        paymentAddress;\n    }\n\n    mapping(address=>MinerData) minersData;\n    mapping(bytes32=>bool)      public existingIds;        \n    \n    bool public whiteListEnabled;\n    bool public blackListEnabled;\n    mapping(address=>bool) whiteList;\n    mapping(address=>bool) blackList;    \n    \n    function SmartPool( address[] _owners,\n                        Ethash _ethashContract,\n                        address _withdrawalAddress,\n                        bool _whiteListEnabled,\n                        bool _blackListEnabled ) payable {\n                        \n        for( uint i = 0 ; i < _owners.length ; i++ ) {\n            owners[_owners[i]] = true; \n        }\n        \n        ethashContract = _ethashContract;\n        withdrawalAddress = _withdrawalAddress;\n        \n        whiteListEnabled = _whiteListEnabled;\n        blackListEnabled = _blackListEnabled;               \n    }\n    \n    function declareNewerVersion() {\n        require( owners[msg.sender] );\n        \n        newVersionReleased = true;\n        \n        //if( ! msg.sender.send(this.balance) ) throw;\n    }\n    \n    event Withdraw( address indexed sender, uint error, uint errorInfo );\n    function withdraw( uint amount ) {\n        if( ! owners[msg.sender] ) {\n            // only ownder can withdraw\n            Withdraw( msg.sender, 0x80000000, amount );\n            return;\n        }\n        \n        withdrawalAddress.transfer( amount );\n        \n        Withdraw( msg.sender, 0, amount );            \n    }\n    \n    function to62Encoding( uint id, uint numChars ) constant returns(bytes32) {\n        require( id < (26+26+10)**numChars );\n        uint result = 0;\n        for( uint i = 0 ; i < numChars ; i++ ) {\n            uint b = id % (26+26+10);\n            uint8 char;\n            if( b < 10 ) {\n                char = uint8(b + 0x30); // 0x30 = '0' \n            }\n            else if( b < 26 + 10 ) {\n                char = uint8(b + 0x61 - 10); //0x61 = 'a'\n            }\n            else {\n                char = uint8(b + 0x41 - 26 - 10); // 0x41 = 'A'         \n            }\n            \n            result = (result * 256) + char;\n            id /= (26+26+10);\n        }\n\n        return bytes32(result);\n    }\n        \n    event Register( address indexed sender, uint error, uint errorInfo );    \n    function register( address paymentAddress ) {\n        address minerAddress = msg.sender;\n        \n        // build id\n        uint id = uint(minerAddress) % (26+26+10)**11;        \n        bytes32 minerId = to62Encoding(id,11);\n        \n        if( existingIds[minersData[minerAddress].minerId] ) {\n            // miner id is already in use\n            Register( msg.sender, 0x80000000, uint(minerId) ); \n            return;\n        }\n        \n        if( paymentAddress == address(0) ) {\n            // payment address is 0\n            Register( msg.sender, 0x80000001, uint(paymentAddress) ); \n            return;\n        }\n        \n        if( whiteListEnabled ) {\n            if( ! whiteList[ msg.sender ] ) {\n                // miner not in white list\n                Register( msg.sender, 0x80000002, uint(minerId) );\n                return;                 \n            }\n        }\n        \n        if( blackListEnabled ) {\n            if( blackList[ msg.sender ] ) {\n                // miner on black list\n                Register( msg.sender, 0x80000003, uint(minerId) );\n                return;                 \n            }        \n        }\n        \n        \n        \n        // last counter is set to 0. \n        // It might be safer to change it to now.\n        //minersData[minerAddress].lastCounter = now * (2**64);\n        minersData[minerAddress].paymentAddress = paymentAddress;        \n        minersData[minerAddress].minerId = minerId;\n        existingIds[minersData[minerAddress].minerId] = true;\n        \n        // succesful registration\n        Register( msg.sender, 0, 0 ); \n    }\n\n    function canRegister(address sender) constant returns(bool) {\n        uint id = uint(sender) % (26+26+10)**11;\n        bytes32 expectedId = to62Encoding(id,11);\n        \n        if( whiteListEnabled ) {\n            if( ! whiteList[ sender ] ) return false; \n        }\n        if( blackListEnabled ) {\n            if( blackList[ sender ] ) return false;        \n        }\n        \n        return ! existingIds[expectedId];\n    }\n    \n    function isRegistered(address sender) constant returns(bool) {\n        return minersData[sender].paymentAddress != address(0);\n    }\n    \n    function getMinerId(address sender) constant returns(bytes32) {\n        return minersData[sender].minerId;\n    }\n\n    event UpdateWhiteList( address indexed miner, uint error, uint errorInfo, bool add );\n    event UpdateBlackList( address indexed miner, uint error, uint errorInfo, bool add );    \n\n    function unRegister( address miner ) internal {\n        minersData[miner].paymentAddress = address(0);\n        existingIds[minersData[miner].minerId] = false;            \n    }\n    \n    function updateWhiteList( address miner, bool add ) {\n        if( ! owners[ msg.sender ] ) {\n            // only owner can update list\n            UpdateWhiteList( msg.sender, 0x80000000, 0, add );\n            return;\n        }\n        if( ! whiteListEnabled ) {\n            // white list is not enabeled\n            UpdateWhiteList( msg.sender, 0x80000001, 0, add );        \n            return;\n        }\n        \n        whiteList[ miner ] = add;\n        if( ! add && isRegistered( miner ) ) {\n            // unregister\n            unRegister( miner );\n        }\n        \n        UpdateWhiteList( msg.sender, 0, uint(miner), add );\n    }\n\n    function updateBlackList( address miner, bool add ) {\n        if( ! owners[ msg.sender ] ) {\n            // only owner can update list\n            UpdateBlackList( msg.sender, 0x80000000, 0, add );\n            return;\n        }\n        if( ! blackListEnabled ) {\n            // white list is not enabeled\n            UpdateBlackList( msg.sender, 0x80000001, 0, add );        \n            return;\n        }\n        \n        blackList[ miner ] = add;\n        if( add && isRegistered( miner ) ) {\n            // unregister\n            unRegister( miner );\n        }\n        \n        UpdateBlackList( msg.sender, 0, uint(miner), add );\n    }\n    \n    event DisableBlackListForever( address indexed sender, uint error, uint errorInfo );    \n    function disableBlackListForever() {\n        if( ! owners[ msg.sender ] ) {\n            // only owner can update list\n            DisableBlackListForever( msg.sender, 0x80000000, 0 );\n            return;\n        }\n        \n        blackListEnabled = false;\n        \n        DisableBlackListForever( msg.sender, 0, 0 );        \n    }\n\n    event DisableWhiteListForever( address indexed sender, uint error, uint errorInfo );\n    function disableWhiteListForever() {\n        if( ! owners[ msg.sender ] ) {\n            // only owner can update list\n            DisableWhiteListForever( msg.sender, 0x80000000, 0 );\n            return;\n        }\n        \n        whiteListEnabled = false;\n        \n        DisableWhiteListForever( msg.sender, 0, 0 );            \n    }\n    \n    event VerifyExtraData( address indexed sender, uint error, uint errorInfo );    \n    function verifyExtraData( bytes32 extraData, bytes32 minerId, uint difficulty ) constant internal returns(bool) {\n        uint i;\n        // compare id\n        for( i = 0 ; i < 11 ; i++ ) {\n            if( extraData[10+i] != minerId[21+i] ) {\n                //ErrorLog( \"verifyExtraData: miner id not as expected\", 0 );\n                VerifyExtraData( msg.sender, 0x83000000, uint(minerId) );         \n                return false;            \n            }\n        }\n        \n        // compare difficulty\n        bytes32 encodedDiff = to62Encoding(difficulty,11);\n        for( i = 0 ; i < 11 ; i++ ) {\n            if(extraData[i+21] != encodedDiff[21+i]) {\n                //ErrorLog( \"verifyExtraData: difficulty is not as expected\", uint(encodedDiff) );\n                VerifyExtraData( msg.sender, 0x83000001, uint(encodedDiff) );\n                return false;            \n            }  \n        }\n                \n        return true;            \n    }    \n    \n    event VerifyClaim( address indexed sender, uint error, uint errorInfo );\n    \n        \n    function verifyClaim( bytes rlpHeader,\n                          uint  nonce,\n                          uint  submissionIndex,\n                          uint  shareIndex,\n                          uint[] dataSetLookup,\n                          uint[] witnessForLookup,\n                          uint[] augCountersBranch,\n                          uint[] augHashesBranch ) {\n\n        if( ! isRegistered(msg.sender) ) {\n            // miner is not registered\n            VerifyClaim( msg.sender, 0x8400000c, 0 );\n            return;         \n        }\n\n        SubmissionDataForClaimVerification memory submissionData = getClaimData( msg.sender,\n            submissionIndex, shareIndex, getClaimSeed( msg.sender ) ); \n                              \n        if( ! submissionData.readyForVerification ) {\n            //ErrorLog( \"there are no pending claims\", 0 );\n            VerifyClaim( msg.sender, 0x84000003, 0 );            \n            return;\n        }\n        \n        BlockHeader memory header = parseBlockHeader(rlpHeader);\n\n        // check extra data\n        if( ! verifyExtraData( header.extraData,\n                               minersData[ msg.sender ].minerId,\n                               submissionData.shareDifficulty ) ) {\n            //ErrorLog( \"extra data not as expected\", uint(header.extraData) );\n            VerifyClaim( msg.sender, 0x84000004, uint(header.extraData) );            \n            return;                               \n        }\n        \n        // check coinbase data\n        if( header.coinbase != uint(this) ) {\n            //ErrorLog( \"coinbase not as expected\", uint(header.coinbase) );\n            VerifyClaim( msg.sender, 0x84000005, uint(header.coinbase) );            \n            return;\n        }\n         \n        \n        // check counter\n        uint counter = header.timestamp * (2 ** 64) + nonce;\n        if( counter < submissionData.min ) {\n            //ErrorLog( \"counter is smaller than min\",counter);\n            VerifyClaim( msg.sender, 0x84000007, counter );            \n            return;                         \n        }\n        if( counter > submissionData.max ) {\n            //ErrorLog( \"counter is smaller than max\",counter);\n            VerifyClaim( msg.sender, 0x84000008, counter );            \n            return;                         \n        }\n        \n        // verify agt\n        uint leafHash = uint(sha3(rlpHeader));\n        VerifyAgtData memory agtData;\n        agtData.rootHash = submissionData.augMerkle;\n        agtData.rootMin = submissionData.min;\n        agtData.rootMax = submissionData.max;\n        agtData.leafHash = leafHash;\n        agtData.leafCounter = counter;\n                \n\n        if( ! verifyAgt( agtData,\n                         shareIndex,\n                         augCountersBranch,\n                         augHashesBranch ) ) {\n            //ErrorLog( \"verifyAgt failed\",0);\n            VerifyClaim( msg.sender, 0x84000009, 0 );            \n            return;\n        }\n                          \n        \n        /*\n        // check epoch data - done inside hashimoto\n        if( ! ethashContract.isEpochDataSet( header.blockNumber / 30000 ) ) {\n            //ErrorLog( \"epoch data was not set\",header.blockNumber / 30000);\n            VerifyClaim( msg.sender, 0x8400000a, header.blockNumber / 30000 );                        \n            return;        \n        }*/\n\n\n        // verify ethash\n        uint ethash = ethashContract.hashimoto( bytes32(leafHash),\n                                                bytes8(nonce),\n                                                dataSetLookup,\n                                                witnessForLookup,\n                                                header.blockNumber / 30000 );\n        if( ethash > ((2**256-1)/submissionData.shareDifficulty )) {\n            if( ethash == 0xFFFFFFFFFFFFFFFFFFFFFFFFFFFFFFFFFFFFFFFFFFFFFFFFFFFFFFFFFFFFFFFE ) {\n                //ErrorLog( \"epoch data was not set\",header.blockNumber / 30000);\n                VerifyClaim( msg.sender, 0x8400000a, header.blockNumber / 30000 );                                        \n            }\n            else {\n                //ErrorLog( \"ethash difficulty too low\",ethash);\n                VerifyClaim( msg.sender, 0x8400000b, ethash );\n            }            \n            return;        \n        }\n        \n        if( getClaimSeed(msg.sender) == 0 ) {\n            //ErrorLog( \"claim seed is 0\", 0 );\n            VerifyClaim( msg.sender, 0x84000001, 0 );\n            return;        \n        }\n        \n        if( ! submissionData.indicesAreValid ) {\n            //ErrorLog( \"share index or submission are not as expected. should be:\", getShareIndex() );\n            VerifyClaim( msg.sender, 0x84000002, 0 );\n            return;                \n        } \n        \n        // recrusive attack is not possible as doPayment is using send and not call.\n        if( ! doPayment(submissionData.totalSubmissionValue,\n                        minersData[ msg.sender ].paymentAddress) ) {\n            // error msg is given in doPayment function\n            return;\n        }\n        \n        closeSubmission( msg.sender );\n        //minersData[ msg.sender ].pendingClaim = false;\n        \n        \n        VerifyClaim( msg.sender, 0, 0 );                        \n        \n        \n        return;\n    }    \n    \n\n    // 10000 = 100%\n    uint public uncleRate = 500; // 5%\n    // 10000 = 100%\n    uint public poolFees = 0;\n\n\n    event IncomingFunds( address sender, uint amountInWei );\n    function() payable {\n        require(msg.value > 0 ); // prevent, e.g., receiving ERC223 tokens.\n        IncomingFunds( msg.sender, msg.value );\n    }\n\n    event SetUnlceRateAndFees( address indexed sender, uint error, uint errorInfo );\n    function setUnlceRateAndFees( uint _uncleRate, uint _poolFees ) {\n        if( ! owners[msg.sender] ) {\n            // only owner should change rates\n            SetUnlceRateAndFees( msg.sender, 0x80000000, 0 );\n            return;\n        }\n        \n        uncleRate = _uncleRate;\n        poolFees = _poolFees;\n        \n        SetUnlceRateAndFees( msg.sender, 0, 0 );\n    }\n        \n    event DoPayment( address indexed sender, address paymentAddress, uint valueInWei );\n    function doPayment( uint submissionValue,\n                        address paymentAddress ) internal returns(bool) {\n\n        uint payment = submissionValue;\n        // take uncle rate into account\n        \n        // payment = payment * (1-0.25*uncleRate)\n        // uncleRate in [0,10000]\n        payment = (payment * (4*10000 - uncleRate)) / (4*10000);\n        \n        // fees\n        payment = (payment * (10000 - poolFees)) / 10000;\n\n        if( payment > this.balance ){\n            //ErrorLog( \"cannot afford to pay\", calcPayment( submissionData.numShares, submissionData.difficulty ) );\n            VerifyClaim( msg.sender, 0x84000000, payment );        \n            return false;\n        }\n                \n        paymentAddress.transfer( payment );\n        \n        DoPayment( msg.sender, paymentAddress, payment ); \n        \n        return true;\n    }\n    \n    function getPoolBalance( ) constant returns(uint) {\n        // debug function for testrpc\n        return this.balance;\n    }\n\n    event GetShareIndexDebugForTestRPCSubmissionIndex( uint index );    \n    event GetShareIndexDebugForTestRPCShareIndex( uint index );\n     \n    function getShareIndexDebugForTestRPC( address sender ) {\n        uint seed = getClaimSeed( sender );\n        uint[2] memory result = calculateSubmissionIndex( sender, seed );\n        \n        GetShareIndexDebugForTestRPCSubmissionIndex( result[0] );\n        GetShareIndexDebugForTestRPCShareIndex( result[1] );        \n            \n    }        \n}\n\n\n\n",
  "sourcePath": "/home/yaron/smartpool/contracts/contracts/SmartPool.sol",
  "compiler": {
    "name": "solc",
    "version": "0.4.18+commit.9cf6e910.Emscripten.clang"
  },
  "schemaVersion": "1.0.1",
  "updatedAt": "2017-12-08T20:30:22.367Z"
}