{
  "contractName": "SmartpoolVersion",
  "abi": [
    {
      "constant": false,
      "inputs": [
        {
          "name": "version",
          "type": "bytes32"
        }
      ],
      "name": "updateClientVersion",
      "outputs": [],
      "payable": false,
      "stateMutability": "nonpayable",
      "type": "function"
    },
    {
      "constant": true,
      "inputs": [],
      "name": "clientVersion",
      "outputs": [
        {
          "name": "",
          "type": "bytes32"
        }
      ],
      "payable": false,
      "stateMutability": "view",
      "type": "function"
    },
    {
      "constant": true,
      "inputs": [],
      "name": "poolContract",
      "outputs": [
        {
          "name": "",
          "type": "address"
        }
      ],
      "payable": false,
      "stateMutability": "view",
      "type": "function"
    },
    {
      "constant": false,
      "inputs": [
        {
          "name": "newAddress",
          "type": "address"
        }
      ],
      "name": "updatePoolContract",
      "outputs": [],
      "payable": false,
      "stateMutability": "nonpayable",
      "type": "function"
    },
    {
      "inputs": [
        {
          "name": "_owners",
          "type": "address[3]"
        }
      ],
      "payable": false,
      "stateMutability": "nonpayable",
      "type": "constructor"
    }
  ],
  "bytecode": "0x6060604052341561000f57600080fd5b6040516060806104188339810160405280905060016002600083600060038110151561003757fe5b602002015173ffffffffffffffffffffffffffffffffffffffff1673ffffffffffffffffffffffffffffffffffffffff16815260200190815260200160002060006101000a81548160ff0219169083151502179055506001600260008360016003811015156100a257fe5b602002015173ffffffffffffffffffffffffffffffffffffffff1673ffffffffffffffffffffffffffffffffffffffff16815260200190815260200160002060006101000a81548160ff02191690831515021790555060016002600083600260038110151561010d57fe5b602002015173ffffffffffffffffffffffffffffffffffffffff1673ffffffffffffffffffffffffffffffffffffffff16815260200190815260200160002060006101000a81548160ff021916908315150217905550506102a5806101736000396000f300606060405260043610610062576000357c0100000000000000000000000000000000000000000000000000000000900463ffffffff16806303e9598c14610067578063044c1d4d1461008e57806388d52ef7146100bf578063ff1d9dd414610114575b600080fd5b341561007257600080fd5b61008c60048080356000191690602001909190505061014d565b005b341561009957600080fd5b6100a16101b3565b60405180826000191660001916815260200191505060405180910390f35b34156100ca57600080fd5b6100d26101b9565b604051808273ffffffffffffffffffffffffffffffffffffffff1673ffffffffffffffffffffffffffffffffffffffff16815260200191505060405180910390f35b341561011f57600080fd5b61014b600480803573ffffffffffffffffffffffffffffffffffffffff169060200190919050506101de565b005b600260003373ffffffffffffffffffffffffffffffffffffffff1673ffffffffffffffffffffffffffffffffffffffff16815260200190815260200160002060009054906101000a900460ff1615156101a557600080fd5b806001816000191690555050565b60015481565b6000809054906101000a900473ffffffffffffffffffffffffffffffffffffffff1681565b600260003373ffffffffffffffffffffffffffffffffffffffff1673ffffffffffffffffffffffffffffffffffffffff16815260200190815260200160002060009054906101000a900460ff16151561023657600080fd5b806000806101000a81548173ffffffffffffffffffffffffffffffffffffffff021916908373ffffffffffffffffffffffffffffffffffffffff160217905550505600a165627a7a72305820b8fd21bc0e0321a54c40f2c2218c487312953ccf417cb9e62d7d6470c4b02a2e0029",
  "source": "pragma solidity ^0.4.8;\n\ncontract SmartpoolVersion {\n    address    public poolContract;\n    bytes32    public clientVersion;\n    \n    mapping (address=>bool) owners;\n    \n    function SmartpoolVersion( address[3] _owners ) {\n        owners[_owners[0]] = true;\n        owners[_owners[1]] = true;\n        owners[_owners[2]] = true;        \n    }\n    \n    function updatePoolContract( address newAddress ) {\n        if( ! owners[msg.sender] ) throw;\n        \n        poolContract = newAddress;\n    }\n    \n    function updateClientVersion( bytes32 version ) {\n        if( ! owners[msg.sender] ) throw;\n        \n        clientVersion = version;\n    }\n}",
  "sourcePath": "/home/yaron/smartpool/contracts/contracts/SmartpoolVersion.sol",
  "compiler": {
    "name": "solc",
    "version": "0.4.18+commit.9cf6e910.Emscripten.clang"
  },
  "schemaVersion": "1.0.1",
  "updatedAt": "2017-12-08T20:30:22.398Z"
}